:100000000C9487000C94A4000C94A4000C94A400FD
:100010000C94A4000C94A4000C94A4000C94A400D0
:100020000C9462050C94A4000C94A4000C94A400FD
:100030000C94A4000C94A9000C94A4000C94A400AB
:100040000C94A4000C94A4000C94A4000C94A400A0
:100050000C94A4000C94A4000C94A4000C94A40090
:100060000C94A4000C94A4000C94A4000C94A40080
:100070000C94A4000C94A4000C94A40061076807DD
:100080006F0776077D0784078B0792070763423661
:10009000B79BD8A71A39685618AEBAAB558C1D3C19
:1000A000B7CC5763BD6DEDFD753EF6177231BF00DD
:1000B0000000803F08000000BE922449123EABAA17
:1000C000AA2ABECDCCCC4C3E00000080BEABAAAA72
:1000D000AA3E00000000BF000000803F00000000BA
:1000E00000084178D3BB4387D1133D190E3CC3BDF3
:1000F0004282AD2B3E68EC8276BED98FE1A93E4CA0
:1001000080EFFFBE01C4FF7F3F000000000011240C
:100110001FBECFEFCDBFDFE3DEBF18E3A0E0B8E343
:10012000E4EAFDE102C005900D92AC32B107D9F7C7
:100130002EE3ACE2B8E301C01D92A530B207E1F7AF
:100140000E94E8000C94D00E0C9400000E94410222
:1001500008951F920F920FB60F9211242F938F9331
:100160009F938091B63D9091B73D01968093B63DA7
:100170009093B73D8091B63D9091B73D02973CF08A
:100180001092B63D1092B73D81E08093B53D8091CD
:100190003238882391F080912C3890912D38019637
:1001A00080932C3890932D388039914034F0109200
:1001B0002C3810922D381092323881E08093460A04
:1001C0009F918F912F910F900FBE0F901F901895B8
:1001D0000E94A600F894E0E3F4E0808180688083C8
:1001E00080E593EC80934C0A90934D0A8EEB90E05F
:1001F000A0E0B0E08093AD3D9093AE3DA093AF3DC5
:10020000B093B03D88E78093E73D8091E73DE0EF14
:10021000FDE380831182128243E050E0BF0180E65B
:100220000E940E058093F73D80E090E00E94BC079D
:1002300080E090E00E94BF0785B1846085B985B1F8
:10024000877F85B983E090E00E947F0585E00E946A
:100250008B018093B13D9093B23DA0900538B09052
:100260000638E091E33CF0E0EE0FFF1FEE0FFF1FBA
:10027000ED5CF74C60817181828193810F2EF4EBEC
:10028000CF2ED12CF02D10E4E12E10ECF12E03E155
:1002900010E020E132E042E050E00E946906A0E078
:1002A000B0E08093AD3D9093AE3DA093AF3DB09351
:1002B000B03D8091B13D9091B23D843B910518F4E1
:1002C0001092E43C03C081E08093E43C78948091F8
:1002D0002E38882319F00E94C207F9CF0E946509C1
:1002E000F6CFE0E0F6E084E0818383E082838683DA
:1002F00081E0808380E00895E0E0F6E0868381E09D
:100300008087089580910B06817008958091100672
:100310009091110608950E947C010E948201882319
:10032000E1F30E948601E0E0F6E023852160238767
:10033000089580E0089542E068ED81E690E00E9433
:10034000480580E00895789480E0089580E008C032
:10035000E82FF0E0E05FFB4F9081986090838F5F23
:100360008830B0F380E008C0E82FF0E0E05DFB4F9C
:100370009081986090838F5F8830B0F380E008C0F0
:10038000E82FF0E0E05BFB4F9081986090838F5FF7
:100390008830B0F30895E3E1F4E08081887F8460E1
:1003A00080838081877F8083E5E1F4E08081887F9E
:1003B000846080838081877F8083E6E1F4E08081B0
:1003C000887F846080838081877F8083E5E3F4E099
:1003D0008081887F846080838081877F8083E4E35D
:1003E000F4E08081887F846080838081877F808340
:1003F0000E947101089585B18E7F85B984B18160B5
:1004000084B985B18D7F85B984B1826084B90E9439
:100410004C0508950E947805089581B18B7F81B9BC
:1004200080B1846080B9E2E1F4E08081877F8083DD
:1004300080818F7780838081887F8083A0E0B2E095
:1004400011968C911197806111968C93119781B1BF
:100450008D7F81B980B1826080B9E1E1F4E0808173
:10046000877F808380818F7780838081887F80836E
:1004700011968C911197806111968C930E946A0459
:1004800008950E94A60185B18B7F85B984B18460EF
:1004900084B985B1877F85B984B1886084B989B111
:1004A0008D7F89B988B1826088B988B18B7F88B91E
:1004B000E2E5F4E08081877F808388B1877F88B917
:1004C000E3E5F4E08081877F808388B18F7E88B9FF
:1004D000E4E5F4E08081877F80830E949B010E9495
:1004E0002C0B0E94CB010E94340B0E94FB010E9446
:1004F0000A020E94A3010E9476050E940D020E943A
:1005000099010895E0E1F8E0848188608483858121
:1005100081608583E8EBFDE380818E7F8083138695
:100520008EE00895E8EBFDE380818E7F8083138663
:1005300080E00895E0E1F8E08481836084830E9494
:1005400092020895E8EBFDE38081886080838181D9
:1005500090E0880F991F81608093170884E00895C8
:100560000E94A20208950E94A2020895E8EBFDE312
:100570008081886080838181880F8093170883E061
:1005800008950E94B6020895A8EBBDE38C91877F81
:100590008C9382E01B968C931B975096ED91FC9167
:1005A00051975C968D919C915D970995823019F0D9
:1005B000833021F006C00E94B30208950E94C10258
:1005C00008950E949A020895E0E1F8E084818B7F0B
:1005D000848384E00895E0E1F8E084818B7F848364
:1005E00083E00895E0E1F8E084818460848384817D
:1005F000836084830E9492020895E0E1F8E08481A0
:100600008460848388E008958091150884FF19C070
:10061000A8EBBDE35296ED91FC9153975E968D91B8
:100620009C915F970995823019F0833021F006C0C4
:100630000E94B30208950E94C10208950E949A0286
:100640000895E8EBFDE38081877F8083A281B381F9
:10065000CD010196828393838C91809318088481C5
:100660009581019784839583892B11F083E0089508
:1006700085E00895CF93DF93E8EBFDE38081877FEA
:10068000808384819581019731F4E0E1F8E08481F1
:100690008460848305C0E0E1F8E084818B7F8483FB
:1006A000E8EBFDE384819581019784839583892B11
:1006B000A9F0DF01C281D381E0E1F8E08085888381
:1006C00012968D919C911397019612968D939C93FF
:1006D000139784818260848384E026C0A8EBBDE305
:1006E0001296ED91FC9113978091180880831296D1
:1006F0008D919C911397019612968D939C931397CD
:100700008C9184608C931C96ED91FC911D9758966A
:100710008D919C91599709958250823018F40E94CE
:10072000FD0202C00E94F202DF91CF9108958091F4
:10073000150884FF19C0A8EBBDE35296ED91FC911A
:1007400053975E968D919C915F970995823019F031
:10075000833021F006C00E94B30208950E94C102B6
:1007600008950E949A020895A8EBBDE38C918460DD
:100770008C931C96ED91FC911D9758968D919C91B0
:1007800059970995833039F0843041F0823049F42B
:100790000E94B30208950E94C10208950E940403BA
:1007A00008950E949A020895E0E1F8E0858188604A
:1007B0008583A8EBBDE382E01B968C931B971E9666
:1007C000ED91FC911F975A968D919C915B9709959D
:1007D000823019F0833021F006C00E94B3020895E0
:1007E0000E94C10208950E9482020895E0E1F8E0AB
:1007F000848188608483858181608583E8EBFDE363
:1008000080818E7F808382E083878EE00895CF93FE
:10081000DF93E0E1F8E08581806C85838091B83DCD
:1008200083FF07C08091150884FF03C08FE0809389
:10083000C23D8091150883FF03C080E18093C23DD3
:100840008091150882FF03C081E18093C23DC8EB0F
:10085000DDE3EA85F0E0EE0FFF1FE95FF74C019062
:10086000F081E02D09958A87DF91CF91089581E08D
:10087000089585E008956115710591F090E0FC01FF
:100880003696EE0FFF1FE854F24C60837183FC0133
:100890003C96EE0FFF1FE854F24C408351830895BD
:1008A00090E0FC013696EE0FFF1FE854F24C27E370
:1008B00034E020833183FC013C96EE0FFF1FE854A7
:1008C000F24C108211820895AB01BC0182E00E94BB
:1008D0003B040895E0E1F8E082E080838FE58683C1
:1008E00081E0838308959091B83D91FD34C0E8EB99
:1008F000FDE38183892F8E7F82609EE0928724EFC3
:1009000031E020873187877F8460808387E394E0AC
:1009100084879587108E118E86879787128E138E07
:10092000808B918B148E158E828B938B168E178EE7
:1009300089E394E0848B958B10A211A2E0E1F8E0AA
:100940008481886084838581816085838581806CD2
:10095000858380E0089581E008958091150882FFE5
:1009600007C0E8EBFDE380818E7F808382E0838790
:100970008091B83D80FD17C0E8EBFDE38D7F80835B
:100980008FEF8183A0E1B8E015968C911597806C6C
:1009900015968C93159713968C9113978F731396C6
:1009A0008C938385089581E008959C019091B83DD2
:1009B00092FF09C0E8EBFDE32283338364837583F0
:1009C000892F8B7F808308959091B83D90FD20C042
:1009D000E8EBFDE391609083882321F081E0809330
:1009E000C23D03C082E08093C23D0E9407040AC05A
:1009F00080911508882324F08091150886FFF8CF90
:100A00000E9407048091B83D80FDF2CF80E00895F8
:100A100081E0089580E00E94E4040895CF92DF927F
:100A2000EF92FF921F93CF93DF93182F7B016A0100
:100A3000C0E1D7E2812F0E947304813011F4219725
:100A4000C9F7CD2BC1F0B601C7010E94D50460E003
:100A500070E086E495E00E9464040E940A05C0E10B
:100A6000D7E20E94AD04813011F42197D1F7CD2B4C
:100A700021F482E003C081E001C080E0DF91CF91EA
:100A80001F91FF90EF90DF90CF90089583E008953D
:100A9000FC0164BF40830895E0E0FAE083E38183D2
:100AA00080E29EE486A397A381E0808380E008959E
:100AB0008093380A9093390A089580933A0A909364
:100AC0003B0A08951F920F920FB60F9211248F9335
:100AD00081E080930B0A8091DC3D8F5F8093DC3D49
:100AE0008F910F900FBE0F901F90189580E0089582
:100AF000E0E4FAE081E08583808380E0089582303D
:100B00009105D1F02CF4009751F0019771F02DC0B0
:100B100084309105F9F0BCF0059719F126C01092C8
:100B2000A00083E480930206089581E18093A000F1
:100B300083E480930206089584E48093A00083E414
:100B400080930206089582E28093A00083E480935C
:100B50000206089583E38093A00083E48093020655
:100B6000089583E580930206089583E68093020644
:100B700008954F925F926F927F928F929F92AF9261
:100B8000BF92CF92DF92EF92FF920F931F93CF937A
:100B9000DF93CDB7DEB72A97CDBFDEBF69837A83F7
:100BA0008B839C8329013A01ED82FE820F83188793
:100BB000C986DA86B5016C197D09072E000C880BF1
:100BC000990B0E94860C6B017C016D817E818F8167
:100BD000988564197509860997090E94860C4B014E
:100BE0005C019B01AC01C701B6010E94A90B6B011E
:100BF0007C016093013E7093023E8093033E90938C
:100C0000043E29813A814B815C81241535054605D6
:100C1000570508F443C08D819E81AF81B885821746
:100C20009307A407B507C8F4A7019601C501B4014D
:100C30000E94FF0D4B015C01A985BA85BD01BB0F68
:100C4000880B990B0E94860CA50194010E943D0B14
:100C50000E94550C262F972F23C069817A818B81A2
:100C60009C8164197509860997090E94840CA70163
:100C700096010E94FF0D4B015C0129853A85B9015F
:100C8000330F880B990B0E94860CA50194010E94DA
:100C90003D0B0E94550C262F972F02C029859A855F
:100CA0002093FB3D9093FC3D822F2A96CDBFDEBF63
:100CB000DF91CF911F910F91FF90EF90DF90CF9038
:100CC000BF90AF909F908F907F906F905F904F906C
:100CD00008954F925F926F927F928F929F92AF9200
:100CE000BF92CF92DF92EF92FF920F931F93CF9319
:100CF000DF93CDB7DEB76297CDBFDEBF2B013C01DE
:100D00002D833E834F835887E986FA860B871C879D
:100D1000A98ABA8AB501BB0C880B990B0E94860C74
:100D20004B015C01B601DD0C880B990B0E94860C0F
:100D30006B017C019B01AC01C501B4010E94A90BB0
:100D40000E94830D4B015C0169857A858B859C85AA
:100D50000E94860C6D877E878F87988B6D817E8140
:100D60008F8198850E94860C69837A838B839C830C
:100D70009B01AC016D857E858F8598890E943C0B17
:100D80009B01AC01C501B4010E94A90B4B015C01A0
:100D90006093DD3D7093DE3D8093DF3D9093E03DB9
:100DA0000E94230C29813A814B815C810E946C0E48
:100DB0009B01AC01C701B6010E94A90B6B017C012C
:100DC0006093E13D7093E23D8093E33D9093E43D79
:100DD0008D819E81AF81B885481659066A067B06CB
:100DE00008F189859A85AB85BC8584159505A6058E
:100DF000B70518F439892A8917C0C301B2010E94C6
:100E0000840CA50194010E94FF0D0E94230C9B01FC
:100E1000AC01C701B6010E94FF0D0E94550C362F90
:100E2000272F02C030E020E03093FB3D2093FC3DB3
:100E3000832F922FA989BA89A817B90708F4CD0181
:100E40006296CDBFDEBFDF91CF911F910F91FF90D2
:100E5000EF90DF90CF90BF90AF909F908F907F905A
:100E60006F905F904F9008958AB182FB882780F938
:100E7000E2E0F8E382838AB183FB882780F98183EB
:100E80008AB1829581708083828190E09C01220FDB
:100E9000331F220F331F9181892F90E0880F991FF4
:100EA0009081822B892B80930138E09101388E2F1D
:100EB00090E088309105E8F5FC01E25CFF4F0C946E
:100EC000CA0E83E598E08093E53D9093E63D35C0FA
:100ED0008EE599E08093E53D9093E63D2EC08CE54C
:100EE0009AE08093E53D9093E63D27C08AE89BE039
:100EF0008093E53D9093E63D20C087E89CE0809399
:100F0000E53D9093E63D19C08FE99DE08093E53D76
:100F10009093E63D12C080EA9EE08093E53D909379
:100F2000E63D0BC08FEF9FE08093E53D9093E63D5B
:100F300004C01092E53D1092E63D8091E53D909110
:100F4000E63D089520E030E040E050E0BA010EC0F8
:100F5000F901EE0FFF1FE80FF91F0190F081E02D5E
:100F60004E0F5F1F611D711D2F5F3F4F24363105EE
:100F70007CF3CB01BA0108950E945D0508950E949B
:100F800058050895AF92BF92CF92DF92EF92FF92F1
:100F90000F931F93CF93DF9300D0CDB7DEB70E949E
:100FA0003407809305389093063881E090E00E94E2
:100FB0007F0588E00E948B018093EA3D9093EB3D92
:100FC00085E090E00E947F0586E00E948B0180937F
:100FD000F83D9093F93D8091EA3D9091EB3D883149
:100FE000934320F481E08093313802C0109231386D
:100FF000809100388823D1F08091F83D9091F93D9F
:10100000813A9C4030F481E080933038109200386F
:1010100022C08091F83D9091F93D87369642D8F0F4
:1010200081E080932F381092003815C08091F83DF0
:101030009091F93D8C3D9D4070F08091F83D9091EC
:10104000F93D8033954238F410922F3810923038A1
:1010500081E08093003880913238811112C08091F4
:101060003138811108C080913038811104C08091DD
:101070002F38882331F085B1886085B981E080936D
:10108000323883E090E00E947F0585E00E948B016A
:101090008093B13D9093B23D83E00E948B01809399
:1010A000B33D9093B43D89B1826089B91092B53D4A
:1010B0000091E33C10E02091B33D3091B43DC80174
:1010C000880F991FFC01E55EF34C2083318320914A
:1010D000B13D3091B23DFC01ED5AF44C2083318397
:1010E0008BE19CE30E94A207000F111F000F111F4C
:1010F000F801ED53F64C60837183828393830091F2
:10110000E33C10E083E59BE30E94A207000F111F60
:10111000000F111FF801ED5CF74C6083718382832F
:101120009383809132388111B6C0E091E33CF0E0C6
:10113000EE0FFF1FEE0FFF1FED53F64C6081718124
:10114000828193810F2EF0E2AF2EFEE4BF2EF02DB0
:10115000C12CD12C10E4E12E10ECF12E03E110E0B3
:1011600020E132E042E050E00E94B905A0E0B0E0AA
:101170008093EC3D9093ED3DA093EE3DB093EF3D19
:101180008091EC3D9091ED3DA091EE3DB091EF3D11
:101190008093F33D9093F43DA093F53DB093F63DDD
:1011A0008091EC3D9091ED3DA091EE3DB091EF3DF1
:1011B0000E94BC078091F33D9091F43DA091F53DD4
:1011C000B091F63D0E94BF07A0900538B090063858
:1011D000E091E33CF0E0EE0FFF1FEE0FFF1FED5C30
:1011E000F74C60817181828193810F2EF4EBCF2EB9
:1011F000D12CF02D20E132E042E050E00E9469065F
:10120000A0E0B0E08093AD3D9093AE3DA093AF3DA4
:10121000B093B03DE091E33CF0E08091AD3D909122
:10122000AE3DA091AF3DB091B03DEE0FFF1FEB5131
:10123000F34C808391838091AD3D9091AE3DA09120
:10124000AF3DB091B03D892F9A2FAB2FBB27809334
:10125000E73D8091AD3D9091AE3DA091AF3DB09105
:10126000B03D8093FA3D8091E73D89838091FA3DBE
:101270008A8342E050E0BE016F5F7F4F80E60E94AC
:101280000E058093F73D8091B13D9091B23D813B39
:10129000974008F400008091E33C8F5F8093E33C2B
:1012A000843610F01092E33CA89589B18D7F89B9FE
:1012B0000F900F90DF91CF911F910F91FF90EF90C2
:1012C000DF90CF90BF90AF900895AF92BF92CF9232
:1012D000DF92EF92FF920F931F93CF93DF9300D093
:1012E000CDB7DEB70E943407809305389093063857
:1012F00081E090E00E947F0588E00E948B0180934E
:10130000EA3D9093EB3D85E090E00E947F0586E00A
:101310000E948B018093F83D9093F93D8091EA3DC6
:101320009091EB3D8831934320F481E080933138F4
:1013300002C010923138809100388823D1F080911A
:10134000F83D9091F93D813A9C4030F481E08093E2
:1013500030381092003822C08091F83D9091F93DCC
:1013600087369642D8F081E080932F38109200386B
:1013700015C08091F83D9091F93D8C3D9D4070F0F5
:101380008091F83D9091F93D8033954238F4109268
:101390002F381092303881E08093003880913238B5
:1013A000811112C080913138811108C0809130388C
:1013B000811104C080912F38882331F085B1886075
:1013C00085B981E08093323883E090E00E947F0508
:1013D00085E00E948B018093B13D9093B23D83E004
:1013E0000E948B018093B33D9093B43D8091B53DB5
:1013F000882309F424C11092B53D0091E33C10E02C
:101400002091B33D3091B43DC801880F991FFC0174
:10141000E55EF34C208331832091B13D3091B23DA4
:10142000FC01ED5AF44C208331838BE19CE30E9454
:10143000A207000F111F000F111FF801ED53F64C0A
:1014400060837183828393830091E33C10E083E5A2
:101450009BE30E94A207000F111F000F111FF8014C
:10146000ED5CF74C60837183828393838091323883
:101470008111DBC0E091E33CF0E0EE0FFF1FEE0FC7
:10148000FF1FED53F64C60817181828193810F2E95
:10149000F0E2AF2EFEE4BF2EF02DC12CD12C10E4D3
:1014A000E12E10ECF12E03E110E020E132E042E009
:1014B00050E00E94B905A0E0B0E08093EC3D90932D
:1014C000ED3DA093EE3DB093EF3D8091EC3D9091CA
:1014D000ED3DA091EE3DB091EF3D8093F33D9093B3
:1014E000F43DA093F53DB093F63D8091EC3D909195
:1014F000ED3DA091EE3DB091EF3D0E94BC07809183
:10150000F33D9091F43DA091F53DB091F63D0E94E0
:10151000BF07A0900538B0900638E091E33CF0E0BA
:10152000EE0FFF1FEE0FFF1FED5CF74C6081718126
:10153000828193810F2EF4EBCF2ED12CF02D20E160
:1015400032E042E050E00E946906A0E0B0E0809303
:10155000AD3D9093AE3DA093AF3DB093B03D809133
:10156000E33C90E04091AD3D5091AE3D6091AF3D88
:101570007091B03DFC01EE0FFF1FEB51F34C408327
:1015800051832091E43C211115C0880F991FFC0163
:10159000EB51F34C808191818B3B910538F085B103
:1015A000877F85B981E08093E43C17C085B188606E
:1015B00085B913C0880F991FFC01EB51F34C808152
:1015C0009181863B910530F485B1886085B9109290
:1015D000E43C03C085B1877F85B98091AD3D909192
:1015E000AE3DA091AF3DB091B03D892F9A2FAB2F6A
:1015F000BB278093E73D8091AD3D9091AE3DA0919A
:10160000AF3DB091B03D8093FA3D8091E73D898335
:101610008091FA3D8A8342E050E0BE016F5F7F4FC8
:1016200080E60E940E058093F73D8091E33C8F5F3A
:101630008093E33C843610F01092E33CA8950F9021
:101640000F90DF91CF911F910F91FF90EF90DF905E
:10165000CF90BF90AF90089580E18093A00082E08A
:101660008093A10080E0089549E068ED80E091E07A
:101670000E94480580E008955058BB27AA270E9481
:10168000540B0C94FF0C0E94F10C38F00E94F80CE3
:1016900020F039F49F3F19F426F40C94C70C0EF493
:1016A000E095E7FB0C94C10CE92F0E94100D58F354
:1016B000BA17620773078407950720F079F4A6F537
:1016C0000C94320D0EF4E0950B2EBA2FA02D0B01C9
:1016D000B90190010C01CA01A0011124FF27591B77
:1016E00099F0593F50F4503E68F11A16F040A22F7D
:1016F000232F342F4427585FF3CF469537952795EE
:10170000A795F0405395C9F77EF41F16BA0B620BEC
:10171000730B840BBAF09150A1F0FF0FBB1F661F33
:10172000771F881FC2F70EC0BA0F621F731F841F76
:1017300048F4879577956795B795F7959E3F08F09C
:10174000B0CF9395880F08F09927EE0F979587955E
:1017500008950E94BD0B0C94FF0C0E94F80C58F0E9
:101760000E94F10C40F029F45F3F29F00C94C10C69
:1017700051110C94330D0C94C70C0E94100D68F39A
:101780009923B1F3552391F3951B550BBB27AA273A
:1017900062177307840738F09F5F5F4F220F331F74
:1017A000441FAA1FA9F335D00E2E3AF0E0E832D03C
:1017B00091505040E695001CCAF72BD0FE2F29D03F
:1017C000660F771F881FBB1F261737074807AB0711
:1017D000B0E809F0BB0B802DBF01FF2793585F4F86
:1017E0003AF09E3F510578F00C94C10C0C94330DE7
:1017F0005F3FE4F3983ED4F3869577956795B79568
:10180000F7959F5FC9F7880F911D9695879597F972
:101810000895E1E0660F771F881FBB1F62177307EB
:101820008407BA0720F0621B730B840BBA0BEE1F00
:1018300088F7E095089529F416F00C94C10C0C94E7
:10184000320D0C94C70C0E94180DA8F39638A0F71F
:1018500007F80F92E8942BE33AEA48EB5FE70E941F
:10186000150E0F920F920F924DB75EB70F920E9416
:10187000CB0DECE8F0E00E94CA0C4F915F91EF9124
:10188000FF91E595EE1FFF1F49F0FE57E0684427E2
:10189000EE0F441FFA95E1F74195550B0E94450D57
:1018A0000F9007FE0C94390D08950E94180D88F0D2
:1018B0009F5798F0B92F9927B751B0F0E1F0660F14
:1018C000771F881F991F1AF0BA95C9F714C0B13055
:1018D00091F00E94320DB1E008950C94320D672F03
:1018E000782F8827B85F39F0B93FCCF38695779584
:1018F0006795B395D9F73EF490958095709561956D
:101900007F4F8F4F9F4F0895E89409C097FB3EF497
:1019100090958095709561957F4F8F4F9F4F99233C
:10192000A9F0F92F96E9BB279395F69587957795BA
:101930006795B795F111F8CFFAF4BB0F11F460FF7A
:101940001BC06F5F7F4F8F4F9F4F16C0882311F0D2
:1019500096E911C0772321F09EE8872F762F05C0E6
:10196000662371F096E8862F70E060E02AF09A9581
:10197000660F771F881FDAF7880F9695879597F976
:10198000089597F99F6780E870E060E008959FEF01
:1019900080EC0895DF93CF931F930F93FF92EF9204
:1019A000DF927B018C01689406C0DA2EEF010E9461
:1019B000120EFE01E894A59125913591459155911E
:1019C000A6F3EF010E94540BFE019701A801DA94DF
:1019D00069F7DF90EF90FF900F911F91CF91DF910A
:1019E000089500240A941616170618060906089585
:1019F00000240A9412161306140605060895092EEB
:101A00000394000C11F4882352F0BB0F40F4BF2B59
:101A100011F460FF04C06F5F7F4F8F4F9F4F089599
:101A200057FD9058440F551F59F05F3F71F047958F
:101A3000880F97FB991F61F09F3F79F08795089574
:101A4000121613061406551FF2CF4695F1DF08C093
:101A5000161617061806991FF1CF869571056105B0
:101A600008940895E894BB2766277727CB0197F958
:101A700008959B01AC0160E070E080E89FE30C9466
:101A8000A90B0C94C10C0C94BC0E0E94180DD8F339
:101A90009923C9F3940F511DA3F39150504094F032
:101AA00059F0882332F0660F771F881F91505040FD
:101AB000C1F79E3F51052CF7880F911D969587958C
:101AC00097F908955F3FACF0983E9CF0BB27869550
:101AD00077956795B79508F4B1609395C1F7BB0FFB
:101AE00058F711F460FFE8CF6F5F7F4F8F4F9F4F24
:101AF000E3CF0C94330D16F00C94BC0E0C94C70C71
:101B000068940C94C10C0E94180DA8F39923C1F39A
:101B1000AEF3DF93CF931F930F93FF92C92FDD276F
:101B200088232AF02197660F771F881FDAF720E0B5
:101B300030E040E85FEB9FE3883920F0803E38F0EA
:101B400021968F770E943D0BE4EBF0E004C00E94E9
:101B50003D0BE1EEF0E00E94CA0C8B01BE01EC01EE
:101B6000FB2E6F5771097595771F880B990B0E9493
:101B7000860C28E132E741E35FE30E94120EAF2DAD
:101B80009801AE01FF900F911F91CF91DF910E94BC
:101B9000540B0C94FF0CFA01DC01AA0FBB1F9B0134
:101BA000AC01BF5728F4222733274427507820C0A0
:101BB000B75190F4AB2F0024469537952795011C1B
:101BC000A395D2F3002071F0220F331F441FB39569
:101BD000DAF30ED00C943C0B61307105A0E88A0753
:101BE000B94630F49B01AC016627772788279078A7
:101BF000309621F0208331834283538308950E94DD
:101C0000120E0C94FF0C0E94F10C38F00E94F80C9C
:101C100020F0952311F00C94C10C0C94C70C1124E6
:101C20000C94330D0E94100D70F3959FC1F3950F26
:101C300050E0551F629FF001729FBB27F00DB11D50
:101C4000639FAA27F00DB11DAA1F649F6627B00DE0
:101C5000A11D661F829F2227B00DA11D621F739FC9
:101C6000B00DA11D621F839FA00D611D221F749FD7
:101C70003327A00D611D231F849F600D211D822F1E
:101C8000762F6A2F11249F5750409AF0F1F0882345
:101C90004AF0EE0FFF1FBB1F661F771F881F915072
:101CA0005040A9F79E3F510580F00C94C10C0C9454
:101CB000330D5F3FE4F3983ED4F3869577956795AF
:101CC000B795F795E7959F5FC1F7FE2B880F911D9C
:101CD0009695879597F90895FA01EE0FFF1F3096B4
:101CE00021053105A1F16115710561F48038BFE36B
:101CF0009B0749F168949038810561F08038BFEF07
:101D00009B0741F099234AF5FF3FE1053105210585
:101D100019F1E8940894E795D901AA2329F4AB2F87
:101D2000BE2FF85FD0F310C0FF5F70F4A695E0F708
:101D3000F73950F019F0FF3A38F49F779F930DD0A0
:101D40000F9007FC9058089546F00C94C70C60E083
:101D500070E080E89FE308954FE79F775F934F938C
:101D60003F932F930E94830D2F913F914F915F914D
:101D70000E94FF0D0C94230C9F3F31F0915020F4F2
:101D8000879577956795B795880F911D9695879557
:101D900097F90895EE0FFF1F0590F491E02D099437
:041DA000F894FFCFE5
:101DA4000107010000FF0F9202A202B60204033AE7
:101DB400039703B302C102B0029A02E402EB02F2F7
:0C1DC40002FD028202C402D403F60300F8
:00000001FF
