:100000000C943C000C9459000C9459000C94590029
:100010000C9459000C9459000C9487000C945900CE
:100020000C94BE030C9459000C9459000C94590084
:100030000C9459000C9478000C9459000C945900BD
:100040000C9459000C945E000C9459000C946E00B2
:100050000C9459000C9459000C9459000C945900BC
:100060000C9459000C9459000C9459000C945900AC
:100070000C9459000C94590011241FBECFEFCDBF32
:10008000DFE3DEBF14E3A0E0B4E3E6EBF9E002C097
:1000900005900D92A230B107D9F725E3A2E0B4E3B1
:1000A00001C01D92A234B207E1F70E94F3010C9443
:1000B000D9040C9400000E94730308951F920F92BC
:1000C0000FB60F9211248F9380910408109223345D
:1000D0008F910F900FBE0F901F9018951F920F9247
:1000E0000FB60F9211240F900FBE0F901F9018950E
:1000F0001F920F920FB60F9211248F9382E080937C
:10010000860A8F910F900FBE0F901F9018951F9227
:100110000F920FB60F9211248F9381E080930234D7
:100120008FEF809309048F910F900FBE0F901F9057
:1001300018950F931F93CF93DF93A3E2B4E3FD01D0
:1001400001900020E9F73197E352F443E09314342F
:10015000F09315341092193410921A3410921B3403
:1001600010921C348C91853509F0BFC080912634E3
:10017000823009F0BCC0809127348A3009F0B9C0C0
:10018000ED0160E079818A818B01082B64E070E0E9
:1001900084E294E30E9477049D818913ACC0B80186
:1001A0006D5F7F4F89E294E30E947704E0911434FD
:1001B000F0911534EE5DFB4C908189139EC08885CB
:1001C00090E0992788274091193450911A34609112
:1001D0001B3470911C34092E000CAA0BBB0B842B12
:1001E000952BA62BB72B8093193490931A34A09398
:1001F0001B34B0931C34898590E09927882740915F
:10020000193450911A3460911B3470911C34092EAA
:10021000000CAA0BBB0B842B952BA62BB72B809322
:10022000193490931A34A0931B34B0931C348A85EC
:1002300090E0982F88274091193450911A3460919A
:100240001B3470911C34092E000CAA0BBB0B842BA1
:10025000952BA62BB72B8093193490931A34A09327
:100260001B34B0931C342B858091193490911A342F
:10027000A0911B34B0911C34822B8093193490933D
:100280001A34A0931B34B0931C3480911434909191
:10029000153488309105E1F00B9789F5909132344F
:1002A00081E099230CF080E080931E34E3E2F4E3D4
:1002B000858590E0982F8827268522952695269576
:1002C0002370822B809317349093183481E018C0E8
:1002D00080912F34982F9295969597709093213412
:1002E00080718093223481E00BC080E009C080E0FF
:1002F00007C080E005C080E003C080E001C081E06D
:10030000DF91CF911F910F910895CF93DF93C0910B
:10031000260AD091270A08C0CE010E94B9038AE0BC
:1003200090E00E94AF042297DD23B4F710921D34B1
:10033000DF91CF910895CF93DF93C0E0D0E008C064
:10034000CE010E94B9038AE090E00E94AF04229699
:100350008091260A9091270A8C179D0788F781E0E3
:1003600080931D34DF91CF91089580911D348823AF
:1003700079F080911E3481110BC080910034882364
:1003800039F080911734909118340E9485010895B6
:1003900080911D3481110AC080911E34882331F070
:1003A00080911734909118340E949B010895809396
:1003B000E40508950E945A0480E00E94D7010E943B
:1003C000B3030E94C204E4E1F4E08081887F856089
:1003D00080830895843F914020F00E94850181E050
:1003E000089580E0089580E00E94D7010E945B009C
:1003F0000E94DA01809102348111FCCF8091133484
:10040000882309F491C080E00E94EB0386E00E94FB
:10041000F20260930F3470931034809311349093F0
:10042000123484E00E94EB0387E00E94F2026093A2
:100430000734709308348093093490930A3485E02C
:100440000E94F20260930B3470930C3480930D344D
:1004500090930E346D3E22E072078105910500F500
:1004600080E00E94EB0385E00E94F20260930B346F
:1004700070930C3480930D3490930E34693926E0D8
:1004800072078105910520F481E08093063424C031
:10049000693F764081059105F8F0109206341CC042
:1004A0006E392EE072078105910590F0693C2FE0CE
:1004B00072078105910520F081E0809305340CC01E
:1004C00065337F408105910538F41092053404C0EE
:1004D000109206341092053480910F3490911034AC
:1004E000A0911134B0911234883C9105A105B10559
:1004F00020F081E08093043402C010920434809193
:10050000073490910834A0910934B0910A348439A9
:100510009640A105B10518F41092033403C081E0A0
:1005200080930334109213348091063481110CC0EF
:1005300080910534811108C080910434811104C078
:1005400080910334882321F081B18B7F81B952CF10
:1005500081B1846081B980911F348823F1F00E94B9
:10056000990080911734909118340E94EA01809389
:10057000163480911634811103C00E94B50109C060
:1005800080911634882329F080911D3481110E94B6
:10059000850110921434109215340E94C8042ACF99
:1005A000E0E0F6E088E182838BE1808780E182876A
:1005B00086E0848781E0808380E00895E0E0F6E0D3
:1005C0008487828581608287089580910506817085
:1005D0000895609110067091110680911206909115
:1005E000130608950E94DE020E94E5028823E1F3CB
:1005F0000E94E902E0E0F6E025812160258308956C
:1006000080E0089545E068ED81E690E00E94A30354
:1006100080E00895789480E0089580E008C0E82F95
:10062000F0E0E05FFB4F9081986090838F5F8830AF
:10063000B0F380E008C0E82FF0E0E05DFB4F908170
:10064000986090838F5F8830B0F380E008C0E82F17
:10065000F0E0E05BFB4F9081986090838F5F883083
:10066000B0F30895E5E1F4E08081887F84608083C1
:100670008081877F8083E6E1F4E08081887F8460E9
:1006800080838081877F8083E7E1F4E08081887FB9
:10069000846080838081877F80830E94D002089558
:1006A00084B1877F84B9E3E3F4E08081877F80832E
:1006B00085B18B7F85B984B1846084B90E94E003E1
:1006C000089585B18E7F85B984B1816084B90E9417
:1006D000A70308950E94D40308950E949C030895DF
:1006E0000E94A10308950E940D0381B18B7F81B9FF
:1006F00080B1846080B980B18F7E80B9E4E1F4E09C
:100700008081886080830E9402030E94CA040E9444
:1007100032030E9450030E94D1040E9461030E9490
:100720006A030E946D030E9470030E940A030E94E4
:10073000D2030E940003089584E48093900180E036
:10074000089580E00895FC0164BF40830895E0E0CF
:10075000FAE083E0818385E39CE086A397A387E0AA
:10076000808380E00895E0E0FAE08081816080830A
:1007700008958093380A9093390A08951F920F9232
:100780000FB60F9211248F9381E080930B0A809112
:1007900020348F5F809320348F910F900FBE0F9085
:1007A0001F90189580E00895E0E8FAE085E39CE06A
:1007B0008487958782E0858385E0808380E0089543
:1007C000E0E0F8E08EEA90E08087918780EC858316
:1007D000868380E008958230C1F028F4882341F0B8
:1007E000813061F027C08330B9F08430E1F022C05D
:1007F0001092A0008CE180930206089581E080931E
:10080000A0008DE180930206089582E08093A0000D
:100810008EE180930206089583E08093A0008FE12B
:1008200080930206089587E08093A00088E180937A
:10083000020608958CE18093020608958F929F929C
:10084000AF92BF92CF92DF92EF92FF920F931F93DE
:100850008B019C0180E0812C912C54011CC000FF75
:1008600015C0E42FF0E03197E81BF10961E070E07A
:100870006B0102C0CC0CDD1CEA95E2F70D2C000CDC
:10088000EE08FF088C289D28AE28BF2836952795AE
:10089000179507958F5F841710F3C501B4011F9159
:1008A0000F91FF90EF90DF90CF90BF90AF909F900F
:1008B0008F90089540E050E015C0842F28E00AC0D2
:1008C000882334F490E0880F991F97E0892701C0AE
:1008D000880F21502111F4CFFA01EE5BFB4C80838D
:1008E0004F5F5F4F4F3F510541F33CF30895DF9257
:1008F000EF92FF920F931F93CF93DF937C018B01B5
:10090000C0E0D0E0D12C11C0F701EC0FFD1F6081D9
:1009100070E080E090E048E00E941E046D25E62F24
:10092000F0E0EE5BFB4CD0802196C017D10764F35A
:100930006D2D70E080E090E048E00E941E04862F5C
:10094000DF91CF911F910F91FF90EF90DF9008956D
:1009500080E792E00197F1F700C0000008950F933F
:100960001F93CF93DF938C01C0E0D0E003C00E94BF
:10097000A8042196C017D107D4F3DF91CF911F911E
:100980000F910895E0E0F8E08681806C86830895F9
:10099000A89508951092A00082E08093A10080E0C5
:1009A000089548E068ED80E091E00E94A30380E0B4
:0609B0000895F894FFCF4A
:0209B60001003E
:00000001FF
