:100000000C9446000C9463000C9463000C94630001
:100010000C9463000C9463000C9463000C946300D4
:100020000C94D9050C9463000C9463000C94630049
:100030000C9463000C9468000C9463000C946300AF
:100040000C9463000C9463000C9463000C946300A4
:100050000C9463000C9463000C9463000C94630094
:100060000C9463000C9463000C9463000C94630084
:100070000C9463000C9463000C94630017071E0734
:1000800025072C0733073A074107480711241FBEED
:10009000CFEFCDBFDFE3DEBF18E3A0E0B8E3E2E9D6
:1000A000F3E102C005900D92AA32B107D9F72AE315
:1000B000AAE2B8E301C01D92AA30B207E1F70E949C
:1000C0008B000C94C7090C9400000E94B80208959C
:1000D0001F920F920FB60F9211248F939F938091CE
:1000E000C3399091C43901968093C3399093C43930
:1000F0008091C3399091C43904971CF081E08093BA
:10010000C23981E08093460A9F918F910F900FBE74
:100110000F901F901895CF93DF9300D0CDB7DEB727
:100120000E946500E0E3F4E080818068808380E5E0
:1001300093EC80934C0A90934D0AF89488E780934F
:10014000EC398091EC39E9EFF9E380831182128276
:1001500043E050E0BF0180E60E9485058093003AAD
:1001600080E090E00E94790780E090E00E947C07A8
:1001700085B1846085B985B1877F85B978940E94FF
:10018000EA06809304389093053881E090E00E945D
:10019000F60588E00E9402028093F3399093F439C7
:1001A00085E090E00E94F60586E00E9402028093BE
:1001B000013A9093023A8091F3399091F439883161
:1001C000934318F481E080932C388091013A909108
:1001D000023A8E3C9C4020F481E080932B380AC088
:1001E0008091013A9091023A8B3C954218F081E05F
:1001F00080932A3880912C38811108C080912B3847
:10020000811104C080912A38882339F000001092AF
:100210002B3810922A3810922C3883E090E00E94FC
:10022000F60585E00E9402028093BE399093BF39A3
:1002300083E00E9402028093C0399093C13980917B
:10024000C239882309F4C2C01092C2390091BD3965
:1002500010E08091C0399091C139000F111FF80151
:10026000E75AF64C808391838091BE399091BF39D3
:10027000F801EB50F74C8083918389E599E30E9464
:100280005807F801EF56F74C808391830091BD39F0
:1002900010E085EF98E30E945807000F111FF80146
:1002A000E35DF74C80839183E091BD39F0E0EE0F80
:1002B000FF1FEF56F74C6081718180E090E00F2EB8
:1002C000F0E2EF2EFEE4FF2EF02D00E010E020E93A
:1002D00032E34AE555E00E943006A0E0B0E08093AA
:1002E000F5399093F639A093F739B093F8398091A6
:1002F000F5399091F639A091F739B091F83980939A
:10030000FC399093FD39A093FE39B093FF39809169
:10031000F5399091F639A091F739B091F8390E94EA
:1003200079078091FC399091FD39A091FE39B09107
:10033000FF390E947C078091BD398F5F8093BD3962
:10034000823310F01092BD39E0900438F0900538F7
:100350006091BE397091BF3980E090E000E010E01C
:1003600020E932E34AE555E00E943006A0E0B0E023
:100370008093ED399093EE39A093EF39B093F03933
:100380008091ED399091EE39A091EF39B091F0392B
:10039000892F9A2FAB2FBB278093EC398091ED39B1
:1003A0009091EE39A091EF39B091F0398093033AF2
:1003B0008091EC3989838091033A8A8342E050E04E
:1003C000BE016F5F7F4F80E60E948505A895D7CE5E
:1003D000E0E0F6E084E0818383E08283868381E04D
:1003E000808380E00895E0E0F6E0868381E0808706
:1003F000089580910B068170089580911006909168
:10040000110608950E94F3010E94F9018823E1F387
:100410000E94FD01E0E0F6E0238521602387089536
:1004200080E0089542E068ED81E690E00E94BF051B
:1004300080E00895789480E0089580E008C0E82F77
:10044000F0E0E05FFB4F9081986090838F5F883091
:10045000B0F380E008C0E82FF0E0E05DFB4F908152
:10046000986090838F5F8830B0F380E008C0E82FF9
:10047000F0E0E05BFB4F9081986090838F5F883065
:10048000B0F30895E3E1F4E08081887F84608083A5
:100490008081877F8083E5E1F4E08081887F8460CC
:1004A00080838081877F8083E6E1F4E08081887F9C
:1004B000846080838081877F8083E5E3F4E08081AE
:1004C000887F846080838081877F8083E4E3F4E099
:1004D0008081887F846080838081877F80830E9481
:1004E000E801089585B18E7F85B984B1816084B9B2
:1004F00085B18D7F85B984B1826084B90E94C305BE
:1005000008950E94EF05089581B18B7F81B980B174
:10051000846080B9E2E1F4E08081877F808380811C
:100520008F7780838081887F8083A0E0B2E01196FE
:100530008C911197806111968C93119781B18D7F69
:1005400081B980B1826080B9E1E1F4E08081877F88
:10055000808380818F7780838081887F80831196DC
:100560008C911197806111968C930E94E1040895FB
:100570000E941D0285B18B7F85B984B1846084B9E6
:1005800085B1877F85B984B1886084B989B18D7F51
:1005900089B988B1826088B988B18B7F88B9E2E572
:1005A000F4E08081877F808388B1877F88B9E3E525
:1005B000F4E08081877F808388B18F7E88B9E4E50D
:1005C000F4E08081877F80830E9412020E947F076F
:1005D0000E9442020E9487070E9472020E948102CA
:1005E0000E941A020E94ED050E9484020E941002DD
:1005F0000895E0E1F8E084818860848385818160EA
:100600008583E5ECF9E380818E7F808313868EE01D
:100610000895E5ECF9E380818E7F8083138680E086
:100620000895E0E1F8E08481836084830E940903F7
:100630000895E5ECF9E3808188608083818190E012
:10064000880F991F81608093170884E008950E94A5
:10065000190308950E9419030895E5ECF9E38081D8
:10066000886080838181880F8093170883E00895D4
:100670000E942D030895A5ECB9E38C91877F8C939C
:1006800082E01B968C931B975096ED91FC915197AD
:100690005C968D919C915D970995823019F083301D
:1006A00021F006C00E942A0308950E94380308958D
:1006B0000E9411030895E0E1F8E084818B7F848338
:1006C00084E00895E0E1F8E084818B7F848383E017
:1006D0000895E0E1F8E0848184608483848183600C
:1006E00084830E9409030895E0E1F8E08481846036
:1006F000848388E008958091150884FF19C0A5ECD3
:10070000B9E35296ED91FC9153975E968D919C9131
:100710005F970995823019F0833021F006C00E945E
:100720002A0308950E94380308950E941103089532
:10073000E5ECF9E38081877F8083A281B381CD01DD
:100740000196828393838C9180931808848195818C
:10075000019784839583892B11F083E0089585E0C8
:100760000895CF93DF93E5ECF9E38081877F808361
:1007700084819581019731F4E0E1F8E0848184601F
:10078000848305C0E0E1F8E084818B7F8483E5EC1D
:10079000F9E384819581019784839583892BA9F05E
:1007A000DF01C281D381E0E1F8E080858883129681
:1007B0008D919C911397019612968D939C9313970C
:1007C00084818260848384E026C0A5ECB9E312961C
:1007D000ED91FC91139780911808808312968D916A
:1007E0009C911397019612968D939C9313978C91DD
:1007F00084608C931C96ED91FC911D9758968D9179
:100800009C91599709958250823018F40E94740384
:1008100002C00E946903DF91CF910895809115086D
:1008200084FF19C0A5ECB9E35296ED91FC91539762
:100830005E968D919C915F970995823019F0833077
:1008400021F006C00E942A0308950E9438030895EB
:100850000E9411030895A5ECB9E38C9184608C93F8
:100860001C96ED91FC911D9758968D919C915997EE
:100870000995833039F0843041F0823049F40E9488
:100880002A0308950E94380308950E947B03089567
:100890000E9411030895E0E1F8E085818860858376
:1008A000A5ECB9E382E01B968C931B971E96ED9105
:1008B000FC911F975A968D919C915B970995823078
:1008C00019F0833021F006C00E942A0308950E9487
:1008D000380308950E94F9020895E0E1F8E0848168
:1008E00088608483858181608583E5ECF9E380817C
:1008F0008E7F808382E083878EE00895CF93DF939D
:10090000E0E1F8E08581806C85838091C53983FFC3
:1009100007C08091150884FF03C08FE08093CF3912
:100920008091150883FF03C080E18093CF398091C7
:10093000150882FF03C081E18093CF39C5ECD9E36C
:10094000EA85F0E0EE0FFF1FEA5FF74C0190F081BF
:10095000E02D09958A87DF91CF91089581E0089570
:1009600085E008956115710591F090E0FC013696DF
:10097000EE0FFF1FEB53F64C60837183FC013C9636
:10098000EE0FFF1FEB53F64C40835183089590E028
:10099000FC013696EE0FFF1FEB53F64C2EEA34E0C7
:1009A00020833183FC013C96EE0FFF1FEB53F64C86
:1009B000108211820895AB01BC0182E00E94B20452
:1009C0000895E0E1F8E082E080838FE5868381E0AE
:1009D000838308959091C53991FD34C0E5ECF9E326
:1009E0008183892F8E7F82609EE0928724EF31E0A1
:1009F00020873187877F846080838EEA94E08487B4
:100A00009587108E118E86879787128E138E808B16
:100A1000918B148E158E828B938B168E178E80EB96
:100A200094E0848B958B10A211A2E0E1F8E0848120
:100A3000886084838581816085838581806C8583DE
:100A400080E0089581E008958091150882FF07C035
:100A5000E5ECF9E380818E7F808382E0838780915B
:100A6000C53980FD17C0E5ECF9E38D7F80838FEFFA
:100A70008183A0E1B8E015968C911597806C15964E
:100A80008C93159713968C9113978F7313968C9361
:100A90008385089581E008959C019091C53992FF66
:100AA00009C0E5ECF9E32283338364837583892FDE
:100AB0008B7F808308959091C53990FD20C0E5EC2F
:100AC000F9E391609083882321F081E08093CF390E
:100AD00003C082E08093CF390E947E040AC08091D7
:100AE0001508882324F08091150886FFF8CF0E940E
:100AF0007E048091C53980FDF2CF80E0089581E0C9
:100B0000089580E00E945B050895CF92DF92EF92F6
:100B1000FF921F93CF93DF93182F7B016A01C0E1EF
:100B2000D7E2812F0E94EA04813011F42197C9F79E
:100B3000CD2BC1F0B601C7010E944C0560E070E00A
:100B40008DEB95E00E94DB040E948105C0E1D7E2B5
:100B50000E942405813011F42197D1F7CD2B21F487
:100B600082E003C081E001C080E0DF91CF911F915E
:100B7000FF90EF90DF90CF90089583E00895FC01FF
:100B800064BF40830895E0E0FAE083E3818380E27C
:100B90009EE486A397A381E0808380E008958093FC
:100BA000380A9093390A089580933A0A90933B0A41
:100BB00008951F920F920FB60F9211248F9381E028
:100BC00080930B0A8091E9398F5F8093E9398F9187
:100BD0000F900FBE0F901F90189580E00895E0E4ED
:100BE000FAE081E08583808380E00895823091057A
:100BF000D1F02CF4009751F0019771F02DC08430A2
:100C00009105F9F0BCF0059719F126C01092A000EB
:100C100083E480930206089581E18093A00083E439
:100C200080930206089584E48093A00083E4809377
:100C30000206089582E28093A00083E48093020676
:100C4000089583E38093A00083E4809302060895CF
:100C500083E580930206089583E680930206089553
:100C60002F923F924F925F926F927F928F929F92BC
:100C7000AF92BF92CF92DF92EF92FF920F931F93AA
:100C8000CF93DF93CDB7DEB72C97CDBFDEBF4B013F
:100C90005C0149875A871901B701601B710B072E48
:100CA000000C880B990B0E94A6086B017C01B10116
:100CB00089859A85681B790B072E000C880B990B88
:100CC0000E94A60869837A838B839C839B01AC0175
:100CD000C701B6010E94FC076B017C016093063AD4
:100CE0007093073A8093083A9093093AB801012E1D
:100CF000000C880B990B0E94A6086D837E838F835E
:100D0000988789859A852C01990F66087708C5010F
:100D1000B40164197509860997090E94A408A701FE
:100D200096010E9432099B01AC016D817E818F8109
:100D300098850E94900769877A878B879C870E9495
:100D40006E086093043A7093053A84149504A604DF
:100D5000B70438F1C101330CAA0BBB0B88159905F8
:100D6000AA05BB05A8F4A701960169817A818B8148
:100D70009C810E9432099B01AC016D817E818F8133
:100D800098850E9490070E947508262F972F0BC008
:100D900069857A858B859C850E947508262F972FFB
:100DA00002C0202F912F822F2C96CDBFDEBFDF9166
:100DB000CF911F910F91FF90EF90DF90CF90BF9058
:100DC000AF909F908F907F906F905F904F903F90EB
:100DD0002F9008958AB182FB882780F9E1E0F8E33B
:100DE00082838AB183FB882780F981838AB18295C7
:100DF00081708083828190E09C01220F331F220F3B
:100E0000331F9181892F90E0880F991F9081822B49
:100E1000892B80930038E09100388E2F90E0883045
:100E20009105E8F5FC01E25CFF4F0C94C10983E5F4
:100E300098E08093EA399093EB3935C08EE599E0DC
:100E40008093EA399093EB392EC08CE59AE0809339
:100E5000EA399093EB3927C08AE89BE08093EA391E
:100E60009093EB3920C087E89CE08093EA39909317
:100E7000EB3919C08FE99DE08093EA399093EB3903
:100E800012C080EA9EE08093EA399093EB390BC060
:100E90008FEF9FE08093EA399093EB3904C0109272
:100EA000EA391092EB398091EA399091EB39089543
:100EB00020E030E040E050E0BA010EC0F901EE0F52
:100EC000FF1FE80FF91F0190F081E02D4E0F5F1F0B
:100ED000611D711D2F5F3F4F223331057CF3CB0124
:100EE000BA0122E330E040E050E00E949F09C901CE
:100EF00008950E94D40508950E94CF05089580E1C9
:100F00008093A00082E08093A10080E0089549E0F2
:100F100068ED80E091E00E94BF0580E008955058A0
:100F2000BB27AA270E94A7070C94F8080E94EA088A
:100F300038F00E94F10820F039F49F3F19F426F4AC
:100F40000C94E7080EF4E095E7FB0C94E108E92F18
:100F50000E94090958F3BA176207730784079507B7
:100F600020F079F4A6F50C942B090EF4E0950B2EE5
:100F7000BA2FA02D0B01B90190010C01CA01A001EB
:100F80001124FF27591B99F0593F50F4503E68F146
:100F90001A16F040A22F232F342F4427585FF3CF87
:100FA000469537952795A795F0405395C9F77EF458
:100FB0001F16BA0B620B730B840BBAF09150A1F0A1
:100FC000FF0FBB1F661F771F881FC2F70EC0BA0F27
:100FD000621F731F841F48F4879577956795B795AF
:100FE000F7959E3F08F0B0CF9395880F08F09927AA
:100FF000EE0F9795879508950E9410080C94F808B5
:101000000E94F10858F00E94EA0840F029F45F3F7E
:1010100029F00C94E10851110C942C090C94E70868
:101020000E94090968F39923B1F3552391F3951BA5
:10103000550BBB27AA2762177307840738F09F5FF9
:101040005F4F220F331F441FAA1FA9F335D00E2E66
:101050003AF0E0E832D091505040E695001CCAF7D3
:101060002BD0FE2F29D0660F771F881FBB1F261796
:1010700037074807AB07B0E809F0BB0B802DBF016D
:10108000FF2793585F4F3AF09E3F510578F00C943C
:10109000E1080C942C095F3FE4F3983ED4F3869565
:1010A00077956795B795F7959F5FC9F7880F911D5D
:1010B0009695879597F90895E1E0660F771F881F49
:1010C000BB1F621773078407BA0720F0621B730BFC
:1010D000840BBA0BEE1F88F7E09508950E947508FF
:1010E0006894B1110C942C0908950E94110988F09C
:1010F0009F5798F0B92F9927B751B0F0E1F0660FDC
:10110000771F881F991F1AF0BA95C9F714C0B1301C
:1011100091F00E942B09B1E008950C942B09672FE0
:10112000782F8827B85F39F0B93FCCF3869577954B
:101130006795B395D9F73EF4909580957095619534
:101140007F4F8F4F9F4F0895E89409C097FB3EF45F
:1011500090958095709561957F4F8F4F9F4F992304
:10116000A9F0F92F96E9BB279395F6958795779582
:101170006795B795F111F8CFFAF4BB0F11F460FF42
:101180001BC06F5F7F4F8F4F9F4F16C0882311F09A
:1011900096E911C0772321F09EE8872F762F05C0AE
:1011A000662371F096E8862F70E060E02AF09A9549
:1011B000660F771F881FDAF7880F9695879597F93E
:1011C000089597F99F6780E870E060E008959FEFC9
:1011D00080EC089500240A941616170618060906CE
:1011E000089500240A94121613061406050608959D
:1011F000092E0394000C11F4882352F0BB0F40F425
:10120000BF2B11F460FF04C06F5F7F4F8F4F9F4F64
:10121000089557FD9058440F551F59F05F3F71F0E6
:101220004795880F97FB991F61F09F3F79F087954D
:101230000895121613061406551FF2CF4695F1DFD6
:1012400008C0161617061806991FF1CF8695710566
:10125000610508940895E894BB2766277727CB019A
:1012600097F908950E9445090C94F8080E94EA082D
:1012700038F00E94F10820F0952311F00C94E10859
:101280000C94E70811240C942C090E94090970F3AE
:10129000959FC1F3950F50E0551F629FF001729F1B
:1012A000BB27F00DB11D639FAA27F00DB11DAA1F2A
:1012B000649F6627B00DA11D661F829F2227B00D77
:1012C000A11D621F739FB00DA11D621F839FA00D02
:1012D000611D221F749F3327A00D611D231F849F52
:1012E000600D211D822F762F6A2F11249F575040A9
:1012F0009AF0F1F088234AF0EE0FFF1FBB1F661F24
:10130000771F881F91505040A9F79E3F510580F0EC
:101310000C94E1080C942C095F3FE4F3983ED4F35D
:10132000869577956795B795F795E7959F5FC1F790
:10133000FE2B880F911D9695879597F90895A1E248
:101340001A2EAA1BBB1BFD010DC0AA1FBB1FEE1F3F
:10135000FF1FA217B307E407F50720F0A21BB30B8A
:10136000E40BF50B661F771F881F991F1A9469F706
:1013700060957095809590959B01AC01BD01CF0162
:101380000895EE0FFF1F0590F491E02D0994F89455
:02139000FFCF8D
:1013920007010000FF0F090319032D037B03B103AB
:1013A2000E042A033803270311035B036203690354
:0A13B2007403F9023B034B046D04C1
:00000001FF
