:100000000C9446000C9463000C9463000C94630001
:100010000C9463000C9463000C9463000C946300D4
:100020000C9432060C9463000C9463000C946300EF
:100030000C9463000C9468000C9463000C946300AF
:100040000C9463000C9463000C9463000C946300A4
:100050000C9463000C9463000C9463000C94630094
:100060000C9463000C9463000C9463000C94630084
:100070000C9463000C9463000C9463007007770782
:100080007E0785078C0793079A07A10711241FBED7
:10009000CFEFCDBFDFE3DEBF18E3A0E0B8E3E4E4D9
:1000A000F4E102C005900D92AC32B107D9F72AE312
:1000B000ACE2B8E301C01D92A231B207E1F70E94A1
:1000C000BC000C94200A0C9400000E9411030895B7
:1000D0001F920F920FB60F9211242F938F939F931D
:1000E0008091C7399091C83901968093C739909310
:1000F000C8398091C7399091C839049794F180919B
:1001000006388823A9F08091C5399091C6390196A7
:100110008093C5399093C63981159041DCF08FEFFB
:100120009FE08093C5399093C6391092063812C06B
:100130008091C5399091C63901978093C5399093C4
:10014000C63999233CF41092C5391092C63981E022
:10015000809306381092C7391092C83981E0809395
:10016000C43981E08093460A9F918F912F910F901F
:100170000FBE0F901F901895CF93DF9300D0CDB78F
:10018000DEB70E946500E0E3F4E080818068808350
:1001900080E593EC80934C0A90934D0AF89488E79D
:1001A0008093F0398091F039E9EFF9E3808311828F
:1001B000128243E050E0BF0180E60E94DE0580939A
:1001C000043A80E090E00E94D20780E090E00E9434
:1001D000D50785B18B7F85B985B1886085B978945D
:1001E0000E944307809304389093053881E090E0A3
:1001F0000E944F0688E00E945B028093F33990933F
:10020000F43985E090E00E944F0686E00E945B0290
:100210008093053A9093063A8091F3399091F4399E
:100220008831934318F481E080932E388091053A09
:100230009091063A8E3C9C4020F481E080932D38CA
:100240000AC08091053A9091063A8B3C954218F08D
:1002500081E080932C3880912E38811108C08091E4
:100260002D38811104C080912C38882339F000008A
:1002700010922D3810922C3810922E3883E090E096
:100280000E944F0685E00E945B028093C0399093E4
:10029000C13983E00E945B028093C2399093C339D5
:1002A0008091C439882309F4EAC01092C4390091BE
:1002B000BF3910E08091C2399091C339000F111FEE
:1002C000F801E55AF64C808391838091C039909172
:1002D000C139F801E950F74C808391838BE599E3AC
:1002E0000E94B107F801ED56F74C8083918300918D
:1002F000BF3910E087EF98E30E94B107000F111F8C
:10030000F801E15DF74C80839183E091BF39F0E023
:10031000EE0FFF1FE15DF74C6081718180E090E09E
:100320000F2EF0E2EF2EFEE4FF2EF02D00E010E0A5
:1003300020E932E34AE555E00E948906A0E0B0E0FA
:100340008093003A9093013AA093023AB093033A13
:10035000E090003AF090013A0091023A1091033A8D
:10036000E091BF39F0E0EE0FFF1FED56F74C6081D2
:10037000718180E090E000E010E020E932E34AE59E
:1003800055E00E948906A0E0B0E08093F539909393
:10039000F639A093F739B093F839E091BF39F0E01E
:1003A000EE0FFF1FE15DF74C6081718180E090E00E
:1003B000E12CF12C00E21EE420E932E34AE555E0AD
:1003C0000E948906A0E0B0E08093083A9093093A31
:1003D000A0930A3AB0930B3A4091083A5091093AE7
:1003E00060910A3A70910B3A8091F5399091F63903
:1003F000A091F739B091F839840F951FA61FB71F48
:100400008093FC399093FD39A093FE39B093FF3966
:100410008091F5399091F639A091F739B091F8397A
:100420000E94D2078091FC399091FD39A091FE394C
:10043000B091FF390E94D5078091BF398F5F8093BB
:10044000BF39823310F01092BF398091C539909135
:10045000C6399093F0398091C5399091C63980930F
:10046000073A8091F03989838091073A8A8342E084
:1004700050E0BE016F5F7F4F80E60E94DE05A895C9
:10048000AFCEE0E0F6E084E0818383E08283868380
:1004900081E0808380E00895E0E0F6E0868381E0FB
:1004A0008087089580910B068170089580911006D1
:1004B0009091110608950E944C020E9452028823D6
:1004C000E1F30E945602E0E0F6E0238521602387F5
:1004D000089580E0089542E068ED81E690E00E9492
:1004E000180680E00895789480E0089580E008C0C0
:1004F000E82FF0E0E05FFB4F9081986090838F5F82
:100500008830B0F380E008C0E82FF0E0E05DFB4FFA
:100510009081986090838F5F8830B0F380E008C04E
:10052000E82FF0E0E05BFB4F9081986090838F5F55
:100530008830B0F30895E3E1F4E08081887F84603F
:1005400080838081877F8083E5E1F4E08081887FFC
:10055000846080838081877F8083E6E1F4E080810E
:10056000887F846080838081877F8083E5E3F4E0F7
:100570008081887F846080838081877F8083E4E3BB
:10058000F4E08081887F846080838081877F80839E
:100590000E944102089585B18E7F85B984B1816042
:1005A00084B985B18D7F85B984B1826084B90E9498
:1005B0001C0608950E944806089581B18B7F81B979
:1005C00080B1846080B9E2E1F4E08081877F80833C
:1005D00080818F7780838081887F8083A0E0B2E0F4
:1005E00011968C911197806111968C93119781B11E
:1005F0008D7F81B980B1826080B9E1E1F4E08081D2
:10060000877F808380818F7780838081887F8083CC
:1006100011968C911197806111968C930E943A05E6
:1006200008950E94760285B18B7F85B984B184607C
:1006300084B985B1877F85B984B1886084B989B16F
:100640008D7F89B988B1826088B988B18B7F88B97C
:10065000E2E5F4E08081877F808388B1877F88B975
:10066000E3E5F4E08081877F808388B18F7E88B95D
:10067000E4E5F4E08081877F80830E946B020E9422
:10068000D8070E949B020E94E0070E94CB020E94B2
:10069000DA020E9473020E9446060E94DD020E9456
:1006A00069020895E0E1F8E08481886084838581AF
:1006B00081608583E9ECF9E380818E7F80831386F6
:1006C0008EE00895E9ECF9E380818E7F80831386C4
:1006D00080E00895E0E1F8E08481836084830E94F3
:1006E00062030895E9ECF9E3808188608083818169
:1006F00090E0880F991F81608093170884E0089527
:100700000E94720308950E9472030895E9ECF9E3D0
:100710008081886080838181880F8093170883E0BF
:1007200008950E9486030895A9ECB9E38C91877F10
:100730008C9382E01B968C931B975096ED91FC91C5
:1007400051975C968D919C915D970995823019F037
:10075000833021F006C00E94830308950E94910314
:1007600008950E946A030895E0E1F8E084818B7F98
:10077000848384E00895E0E1F8E084818B7F8483C2
:1007800083E00895E0E1F8E08481846084838481DB
:10079000836084830E9462030895E0E1F8E084812D
:1007A0008460848388E008958091150884FF19C0CF
:1007B000A9ECB9E35296ED91FC9153975E968D9119
:1007C0009C915F970995823019F0833021F006C023
:1007D0000E94830308950E94910308950E946A0372
:1007E0000895E9ECF9E38081877F8083A281B3815A
:1007F000CD010196828393838C9180931808848124
:100800009581019784839583892B11F083E0089566
:1008100085E00895CF93DF93E9ECF9E38081877F4A
:10082000808384819581019731F4E0E1F8E084814F
:100830008460848305C0E0E1F8E084818B7F848359
:10084000E9ECF9E384819581019784839583892B71
:10085000A9F0DF01C281D381E0E1F8E080858883DF
:1008600012968D919C911397019612968D939C935D
:10087000139784818260848384E026C0A9ECB9E365
:100880001296ED91FC91139780911808808312962F
:100890008D919C911397019612968D939C9313972B
:1008A0008C9184608C931C96ED91FC911D975896C9
:1008B0008D919C91599709958250823018F40E942D
:1008C000CD0302C00E94C203DF91CF9108958091B1
:1008D000150884FF19C0A9ECB9E35296ED91FC917B
:1008E00053975E968D919C915F970995823019F090
:1008F000833021F006C00E94830308950E94910373
:1009000008950E946A030895A9ECB9E38C9184606C
:100910008C931C96ED91FC911D9758968D919C910E
:1009200059970995833039F0843041F0823049F489
:100930000E94830308950E94910308950E94D403A6
:1009400008950E946A030895E0E1F8E085818860D7
:100950008583A9ECB9E382E01B968C931B971E96C6
:10096000ED91FC911F975A968D919C915B970995FB
:10097000823019F0833021F006C00E94830308956D
:100980000E94910308950E9452030895E0E1F8E067
:10099000848188608483858181608583E9ECF9E3C3
:1009A00080818E7F808382E083878EE00895CF935D
:1009B000DF93E0E1F8E08581806C85838091C9391F
:1009C00083FF07C08091150884FF03C08FE08093E8
:1009D000D3398091150883FF03C080E18093D33918
:1009E0008091150882FF03C081E18093D339C9EC5F
:1009F000D9E3EA85F0E0EE0FFF1FE95FF74C0190C5
:100A0000F081E02D09958A87DF91CF91089581E0EB
:100A1000089585E008956115710591F090E0FC015D
:100A20003696EE0FFF1FE753F64C60837183FC018F
:100A30003C96EE0FFF1FE753F64C40835183089519
:100A400090E0FC013696EE0FFF1FE753F64C27E0CF
:100A500035E020833183FC013C96EE0FFF1FE75306
:100A6000F64C108211820895AB01BC0182E00E9415
:100A70000B050895E0E1F8E082E080838FE586834E
:100A800081E0838308959091C93991FD34C0E9ECE8
:100A9000F9E38183892F8E7F82609EE0928724EF25
:100AA00031E020873187877F8460808387E095E00D
:100AB00084879587108E118E86879787128E138E66
:100AC000808B918B148E158E828B938B168E178E46
:100AD00089E095E0848B958B10A211A2E0E1F8E00B
:100AE0008481886084838581816085838581806C31
:100AF000858380E0089581E008958091150882FF44
:100B000007C0E9ECF9E380818E7F808382E08387F0
:100B10008091C93980FD17C0E9ECF9E38D7F8083AE
:100B20008FEF8183A0E1B8E015968C911597806CCA
:100B300015968C93159713968C9113978F73139624
:100B40008C938385089581E008959C019091C93923
:100B500092FF09C0E9ECF9E3228333836483758350
:100B6000892F8B7F808308959091C93990FD20C093
:100B7000E9ECF9E391609083882321F081E0809390
:100B8000D33903C082E08093D3390E94D7040AC0CE
:100B900080911508882324F08091150886FFF8CFEE
:100BA0000E94D7048091C93980FDF2CF80E008957A
:100BB00081E0089580E00E94B4050895CF92DF920D
:100BC000EF92FF921F93CF93DF93182F7B016A015F
:100BD000C0E1D7E2812F0E944305813011F42197B3
:100BE000C9F7CD2BC1F0B601C7010E94A50560E091
:100BF00070E086E196E00E9434050E94DA05C0E1CB
:100C0000D7E20E947D05813011F42197D1F7CD2BD9
:100C100021F482E003C081E001C080E0DF91CF9148
:100C20001F91FF90EF90DF90CF90089583E008959B
:100C3000FC0164BF40830895E0E0FAE083E3818330
:100C400080E29EE486A397A381E0808380E00895FC
:100C50008093380A9093390A089580933A0A9093C2
:100C60003B0A08951F920F920FB60F9211248F9393
:100C700081E080930B0A8091ED398F5F8093ED398D
:100C80008F910F900FBE0F901F90189580E00895E0
:100C9000E0E4FAE081E08583808380E0089582309B
:100CA0009105D1F02CF4009751F0019771F02DC00F
:100CB00084309105F9F0BCF0059719F126C0109227
:100CC000A00083E480930206089581E18093A00050
:100CD00083E480930206089584E48093A00083E473
:100CE00080930206089582E28093A00083E48093BB
:100CF0000206089583E38093A00083E480930206B4
:100D0000089583E580930206089583E680930206A2
:100D100008952F923F924F925F926F927F928F929F
:100D20009F92AF92BF92CF92DF92EF92FF920F937A
:100D30001F93CF93DF93CDB7DEB72C97CDBFDEBF28
:100D40004B015C0149875A871901B701601B710B80
:100D5000072E000C880B990B0E94FF086B017C0189
:100D6000B10189859A85681B790B072E000C880BC9
:100D7000990B0E94FF0869837A838B839C839B0174
:100D8000AC01C701B6010E9455086B017C0160935C
:100D90000E3A70930F3A8093103A9093113AB8013B
:100DA000012E000C880B990B0E94FF086D837E8337
:100DB0008F83988789859A852C01990F6608770813
:100DC000C501B40164197509860997090E94FD08D7
:100DD000A70196010E948B099B01AC016D817E8168
:100DE0008F8198850E94E90769877A878B879C871E
:100DF0000E94C70860930C3A70930D3A84149504CE
:100E0000A604B70438F1C101330CAA0BBB0B88153B
:100E10009905AA05BB05A8F4A701960169817A8105
:100E20008B819C810E948B099B01AC016D817E812D
:100E30008F8198850E94E9070E94CE08262F972F60
:100E40000BC069857A858B859C850E94CE08262FEC
:100E5000972F02C0202F912F822F2C96CDBFDEBF5F
:100E6000DF91CF911F910F91FF90EF90DF90CF9086
:100E7000BF90AF909F908F907F906F905F904F90BA
:100E80003F902F9008958AB182FB882780F9E1E096
:100E9000F8E382838AB183FB882780F981838AB152
:100EA000829581708083828190E09C01220F331FA4
:100EB000220F331F9181892F90E0880F991F908115
:100EC000822B892B80930038E09100388E2F90E0A0
:100ED00088309105E8F5FC01E25CFF4F0C941A0A9A
:100EE0008EE591E08093EE399093EF3935C080E93B
:100EF00091E08093EE399093EF392EC082EC91E02F
:100F00008093EE399093EF3927C084EF91E080937E
:100F1000EE399093EF3920C086E292E08093EE396B
:100F20009093EF3919C088E592E08093EE39909361
:100F3000EF3912C08AE892E08093EE399093EF394E
:100F40000BC08CEB92E08093EE399093EF3904C0A4
:100F50001092EE391092EF398091EE399091EF397D
:100F6000089520E030E040E050E0BA010EC0F90101
:100F7000EE0FFF1FE80FF91F0190F081E02D4E0FDB
:100F80005F1F611D711D2F5F3F4F223331057CF3C1
:100F9000CB01BA0122E330E040E050E00E94F809C2
:100FA000C90108950E942D0608950E9428060895FB
:100FB00080E18093A00082E08093A10080E008950A
:100FC00049E068ED80E091E00E94180680E0089515
:100FD0005058BB27AA270E9400080C9451090E9470
:100FE000430938F00E944A0920F039F49F3F19F470
:100FF00026F40C9440090EF4E095E7FB0C943A09B2
:10100000E92F0E94620958F3BA1762077307840731
:10101000950720F079F4A6F50C9484090EF4E09578
:101020000B2EBA2FA02D0B01B90190010C01CA01A2
:10103000A0011124FF27591B99F0593F50F4503E4D
:1010400068F11A16F040A22F232F342F4427585F3F
:10105000F3CF469537952795A795F0405395C9F757
:101060007EF41F16BA0B620B730B840BBAF091500F
:10107000A1F0FF0FBB1F661F771F881FC2F70EC0AE
:10108000BA0F621F731F841F48F487957795679581
:10109000B795F7959E3F08F0B0CF9395880F08F06D
:1010A0009927EE0F9795879508950E9469080C94EB
:1010B00051090E944A0958F00E94430940F029F45E
:1010C0005F3F29F00C943A0951110C9485090C9456
:1010D00040090E94620968F39923B1F3552391F303
:1010E000951B550BBB27AA2762177307840738F097
:1010F0009F5F5F4F220F331F441FAA1FA9F335D0F4
:101100000E2E3AF0E0E832D091505040E695001CA7
:10111000CAF72BD0FE2F29D0660F771F881FBB1F61
:10112000261737074807AB07B0E809F0BB0B802D3F
:10113000BF01FF2793585F4F3AF09E3F510578F06B
:101140000C943A090C9485095F3FE4F3983ED4F37C
:10115000869577956795B795F7959F5FC9F7880F3F
:10116000911D9695879597F90895E1E0660F771F91
:10117000881FBB1F621773078407BA0720F0621B22
:10118000730B840BBA0BEE1F88F7E09508950E944D
:10119000CE086894B1110C94850908950E946A09DB
:1011A00088F09F5798F0B92F9927B751B0F0E1F028
:1011B000660F771F881F991F1AF0BA95C9F714C0D8
:1011C000B13091F00E948409B1E008950C94840933
:1011D000672F782F8827B85F39F0B93FCCF3869511
:1011E00077956795B395D9F73EF49095809570956E
:1011F00061957F4F8F4F9F4F0895E89409C097FBEB
:101200003EF490958095709561957F4F8F4F9F4FDD
:101210009923A9F0F92F96E9BB279395F695879521
:1012200077956795B795F111F8CFFAF4BB0F11F4E4
:1012300060FF1BC06F5F7F4F8F4F9F4F16C088238B
:1012400011F096E911C0772321F09EE8872F762FC1
:1012500005C0662371F096E8862F70E060E02AF002
:101260009A95660F771F881FDAF7880F96958795EE
:1012700097F9089597F99F6780E870E060E0089516
:101280009FEF80EC089500240A941616170618069E
:101290000906089500240A9412161306140605067A
:1012A0000895092E0394000C11F4882352F0BB0F0B
:1012B00040F4BF2B11F460FF04C06F5F7F4F8F4F6E
:1012C0009F4F089557FD9058440F551F59F05F3FA9
:1012D00071F04795880F97FB991F61F09F3F79F058
:1012E00087950895121613061406551FF2CF4695DA
:1012F000F1DF08C0161617061806991FF1CF86955C
:101300007105610508940895E894BB27662777273F
:10131000CB0197F908950E949E090C9451090E94EF
:10132000430938F00E944A0920F0952311F00C94EB
:101330003A090C94400911240C9485090E94620911
:1013400070F3959FC1F3950F50E0551F629FF00118
:10135000729FBB27F00DB11D639FAA27F00DB11D31
:10136000AA1F649F6627B00DA11D661F829F2227BA
:10137000B00DA11D621F739FB00DA11D621F839F41
:10138000A00D611D221F749F3327A00D611D231F17
:10139000849F600D211D822F762F6A2F11249F5765
:1013A00050409AF0F1F088234AF0EE0FFF1FBB1F68
:1013B000661F771F881F91505040A9F79E3F510527
:1013C00080F00C943A090C9485095F3FE4F3983E51
:1013D000D4F3869577956795B795F795E7959F5FD1
:1013E000C1F7FE2B880F911D9695879597F9089563
:1013F000A1E21A2EAA1BBB1BFD010DC0AA1FBB1F19
:10140000EE1FFF1FA217B307E407F50720F0A21B8A
:10141000B30BE40BF50B661F771F881F991F1A94F7
:1014200069F760957095809590959B01AC01BD0121
:10143000CF010895EE0FFF1F0590F491E02D099460
:04144000F894FFCF4E
:1014440007010000BC0201620372038603D4030A8D
:101454000467048303910380036A03B403BB03C2D8
:0C14640003CD0352039403A404C604004B
:00000001FF
