:100000000C9446000C9463000C9463000C94630001
:100010000C9463000C9463000C9463000C946300D4
:100020000C9417060C9463000C9463000C9463000A
:100030000C9463000C9468000C9463000C946300AF
:100040000C9463000C9463000C9463000C946300A4
:100050000C9463000C9463000C9463000C94630094
:100060000C9463000C9463000C9463000C94630084
:100070000C9463000C9463000C94630036073D07F6
:1000800044074B07520759076007670711241FBE33
:10009000CFEFCDBFDFE3DEBF18E3A0E0B8E3E2EBD4
:1000A000F3E102C005900D92AC32B107D9F72AE313
:1000B000ACE2B8E301C01D92A131B207E1F70E94A2
:1000C000A3000C94D7090C9400000E94F802089534
:1000D0001F920F920FB60F9211242F938F939F931D
:1000E0008091C8399091C93901968093C83990930D
:1000F000C9398091C8399091C93904971CF081E0C1
:100100008093C73980913138882391F080912C38C1
:1001100090912D38019680932C3890932D3880390A
:10012000914034F010922C3810922D3810923138C2
:1001300081E08093460A9F918F912F910F900FBE7F
:100140000F901F901895CF93DF9300D0CDB7DEB7F7
:100150000E946500E0E3F4E080818068808380E5B0
:1001600093EC80934C0A90934D0AF89488E780931F
:10017000F1398091F139EEEFF9E380831182128237
:1001800043E050E0BF0180E60E94C3058093053A3A
:1001900080E090E00E94980780E090E00E949B073A
:1001A00085B1846085B985B1877F85B978940E94CF
:1001B0000907809305389093063881E090E00E940B
:1001C000340688E00E9442028093F8399093F9390E
:1001D00085E090E00E94340686E00E94420280930F
:1001E000063A9093073A8091F8399091F93988311D
:1001F000934320F481E08093303802C0109230386D
:10020000809100388823D1F08091063A9091073A86
:10021000813A9C4030F481E080932F38109200386E
:1002200022C08091063A9091073A82339442D8F0E6
:1002300081E080932E381092003815C08091063AE4
:100240009091073A8C3D9D4070F08091063A9091D4
:10025000073A883F934238F410922E3810922F3884
:1002600081E0809300388091313881110FC08091F6
:100270003038811108C080912F38811104C08091DD
:100280002E38882319F081E08093313883E090E0A4
:100290000E94340685E00E9442028093C339909305
:1002A000C43983E00E9442028093C5399093C639D5
:1002B0008091C739882309F47ACF1092C739009109
:1002C000C23910E08091C5399091C639000F111FD5
:1002D000F801E25AF64C808391838091C339909162
:1002E000C439F801E650F74C808391838EE599E399
:1002F0000E947707F801EA56F74C808391830091BA
:10030000C23910E08AEF98E30E947707000F111FAF
:10031000F801EE5CF74C8083918380913138811134
:100320008CC0E091C239F0E0EE0FFF1FEA56F74CA7
:100330006081718180E090E00F2EF0E2EF2EFEE40C
:10034000FF2EF02D00E010E020E932E34AE555E011
:100350000E946E06A0E0B0E08093FA399093FB39DA
:10036000A093FC39B093FD398091FA399091FB3913
:10037000A091FC39B091FD398093013A9093023AF3
:10038000A093033AB093043A8091FA399091FB39E3
:10039000A091FC39B091FD390E9498078091013AF3
:1003A0009091023AA091033AB091043A0E949B07BF
:1003B000E0900538F0900638E091C239F0E0EE0F99
:1003C000FF1FEE5CF74C6081718180E090E020E9D6
:1003D00032E34AE555E00E946E06A0E0B0E080936B
:1003E000F2399093F339A093F439B093F5398091B1
:1003F000F2399091F339A091F439B091F539892F00
:100400009A2FAB2FBB278093F1398091F2399091CD
:10041000F339A091F439B091F5398093083A80917D
:10042000F13989838091083A8A8342E050E0BE0125
:100430006F5F7F4F80E60E94C3058091C2398F5F56
:100440008093C239823308F4B2CE1092C239AFCE53
:10045000E0E0F6E084E0818383E08283868381E0CC
:10046000808380E00895E0E0F6E0868381E0808785
:10047000089580910B0681700895809110069091E7
:10048000110608950E9433020E9439028823E1F385
:100490000E943D02E0E0F6E0238521602387089575
:1004A00080E0089542E068ED81E690E00E94FD055D
:1004B00080E00895789480E0089580E008C0E82FF7
:1004C000F0E0E05FFB4F9081986090838F5F883011
:1004D000B0F380E008C0E82FF0E0E05DFB4F9081D2
:1004E000986090838F5F8830B0F380E008C0E82F79
:1004F000F0E0E05BFB4F9081986090838F5F8830E5
:10050000B0F30895E3E1F4E08081887F8460808324
:100510008081877F8083E5E1F4E08081887F84604B
:1005200080838081877F8083E6E1F4E08081887F1B
:10053000846080838081877F8083E5E3F4E080812D
:10054000887F846080838081877F8083E4E3F4E018
:100550008081887F846080838081877F80830E9400
:100560002802089585B18E7F85B984B1816084B9F0
:1005700085B18D7F85B984B1826084B90E940106FE
:1005800008950E942D06089581B18B7F81B980B1B5
:10059000846080B9E2E1F4E08081877F808380819C
:1005A0008F7780838081887F8083A0E0B2E011967E
:1005B0008C911197806111968C93119781B18D7FE9
:1005C00081B980B1826080B9E1E1F4E08081877F08
:1005D000808380818F7780838081887F808311965C
:1005E0008C911197806111968C930E941F0508953C
:1005F0000E945D0285B18B7F85B984B1846084B926
:1006000085B1877F85B984B1886084B989B18D7FD0
:1006100089B988B1826088B988B18B7F88B9E2E5F1
:10062000F4E08081877F808388B1877F88B9E3E5A4
:10063000F4E08081877F808388B18F7E88B9E4E58C
:10064000F4E08081877F80830E9452020E949E078F
:100650000E9482020E94B2020E94C1020E945A02BB
:100660000E942B060E94C4020E9450020895E0E1FD
:10067000F8E0848188608483858181608583EAECE9
:10068000F9E380818E7F808313868EE00895EAEC03
:10069000F9E380818E7F8083138680E00895E0E116
:1006A000F8E08481836084830E9447030895EAEC24
:1006B000F9E3808188608083818190E0880F991FB1
:1006C00081608093170884E008950E94570308957D
:1006D0000E9457030895EAECF9E3808188608083E3
:1006E0008181880F8093170883E008950E946B032F
:1006F0000895AAECB9E38C91877F8C9382E01B96D6
:100700008C931B975096ED91FC9151975C968D912F
:100710009C915D970995823019F0833021F006C0D5
:100720000E94680308950E94760308950E944F0373
:100730000895E0E1F8E084818B7F848384E008956C
:10074000E0E1F8E084818B7F848383E00895E0E139
:10075000F8E08481846084838481836084830E9440
:1007600047030895E0E1F8E084818460848388E0B1
:1007700008958091150884FF19C0AAECB9E3529638
:10078000ED91FC9153975E968D919C915F970995A1
:10079000823019F0833021F006C00E94680308956A
:1007A0000E94760308950E944F030895EAECF9E34E
:1007B0008081877F8083A281B381CD01019682836E
:1007C00093838C9180931808848195810197848309
:1007D0009583892B11F083E0089585E00895CF93E8
:1007E000DF93EAECF9E38081877F808384819581C0
:1007F000019731F4E0E1F8E084818460848305C0EE
:10080000E0E1F8E084818B7F8483EAECF9E3848182
:100810009581019784839583892BA9F0DF01C2819B
:10082000D381E0E1F8E08085888312968D919C91D8
:100830001397019612968D939C93139784818260EF
:10084000848384E026C0AAECB9E31296ED91FC9172
:10085000139780911808808312968D919C9113971D
:10086000019612968D939C9313978C9184608C9330
:100870001C96ED91FC911D9758968D919C915997DE
:1008800009958250823018F40E94B20302C00E947F
:10089000A703DF91CF9108958091150884FF19C0B7
:1008A000AAECB9E35296ED91FC9153975E968D9127
:1008B0009C915F970995823019F0833021F006C032
:1008C0000E94680308950E94760308950E944F03D2
:1008D0000895AAECB9E38C9184608C931C96ED91F9
:1008E000FC911D9758968D919C915997099583304D
:1008F00039F0843041F0823049F40E946803089551
:100900000E94760308950E94B90308950E944F0340
:100910000895E0E1F8E0858188608583AAECB9E379
:1009200082E01B968C931B971E96ED91FC911F976E
:100930005A968D919C915B970995823019F083307E
:1009400021F006C00E94680308950E94760308956E
:100950000E9437030895E0E1F8E084818860848391
:10096000858181608583EAECF9E380818E7F8083D5
:1009700082E083878EE00895CF93DF93E0E1F8E093
:100980008581806C85838091CA3983FF07C08091FF
:10099000150884FF03C08FE08093D4398091150837
:1009A00083FF03C080E18093D4398091150882FFD2
:1009B00003C081E18093D439CAECD9E3EA85F0E041
:1009C000EE0FFF1FE95FF74C0190F081E02D0995D4
:1009D0008A87DF91CF91089581E0089585E0089599
:1009E0006115710591F090E0FC013696EE0FFF1F46
:1009F000E653F64C60837183FC013C96EE0FFF1FBB
:100A0000E653F64C40835183089590E0FC013696FE
:100A1000EE0FFF1FE653F64C2CEE34E020833183BB
:100A2000FC013C96EE0FFF1FE653F64C108211823C
:100A30000895AB01BC0182E00E94F0040895E0E15A
:100A4000F8E082E080838FE5868381E083830895E8
:100A50009091CA3991FD34C0EAECF9E38183892F82
:100A60008E7F82609EE0928724EF31E0208731877D
:100A7000877F846080838CEE94E084879587108ED6
:100A8000118E86879787128E138E808B918B148E92
:100A9000158E828B938B168E178E8EEE94E0848B40
:100AA000958B10A211A2E0E1F8E084818860848334
:100AB0008581816085838581806C858380E0089550
:100AC00081E008958091150882FF07C0EAECF9E300
:100AD00080818E7F808382E083878091CA3980FD08
:100AE00017C0EAECF9E38D7F80838FEF8183A0E16B
:100AF000B8E015968C911597806C15968C93159788
:100B000013968C9113978F7313968C938385089506
:100B100081E008959C019091CA3992FF09C0EAECE6
:100B2000F9E32283338364837583892F8B7F8083EA
:100B300008959091CA3990FD20C0EAECF9E39160E4
:100B40009083882321F081E08093D43903C082E030
:100B50008093D4390E94BC040AC080911508882370
:100B600024F08091150886FFF8CF0E94BC04809184
:100B7000CA3980FDF2CF80E0089581E0089580E0D9
:100B80000E9499050895CF92DF92EF92FF921F93F2
:100B9000CF93DF93182F7B016A01C0E1D7E2812F49
:100BA0000E942805813011F42197C9F7CD2BC1F09F
:100BB000B601C7010E948A0560E070E08BEF95E006
:100BC0000E9419050E94BF05C0E1D7E20E9462059C
:100BD000813011F42197D1F7CD2B21F482E003C0AD
:100BE00081E001C080E0DF91CF911F91FF90EF90F5
:100BF000DF90CF90089583E00895FC0164BF4083A7
:100C00000895E0E0FAE083E3818380E29EE486A336
:100C100097A381E0808380E008958093380A9093C1
:100C2000390A089580933A0A90933B0A08951F92D7
:100C30000F920FB60F9211248F9381E080930B0ACD
:100C40008091EE398F5F8093EE398F910F900FBEB8
:100C50000F901F90189580E00895E0E4FAE081E09D
:100C60008583808380E0089582309105D1F02CF453
:100C7000009751F0019771F02DC084309105F9F083
:100C8000BCF0059719F126C01092A00083E4809370
:100C90000206089581E18093A00083E48093020618
:100CA000089584E48093A00083E48093020608956D
:100CB00082E28093A00083E480930206089583E398
:100CC0008093A00083E480930206089583E58093D7
:100CD0000206089583E68093020608952F923F92BC
:100CE0004F925F926F927F928F929F92AF92BF923C
:100CF000CF92DF92EF92FF920F931F93CF93DF93E8
:100D00004B015C01EA011901B701601B710B072E51
:100D1000000C880B990B0E94B6086B017C01B10195
:100D20006C1B7D0B072E000C880B990B0E94B608DC
:100D30002B013C019B01AC01C701B6010E941308C5
:100D40006B017C0160930D3A70930E3A80930F3AD9
:100D50009093103ACE01DD0FAA0BBB0B88169906B3
:100D6000AA06BB0608F43FC0A101330C660B770B43
:100D7000481559056A057B05B8F4A7019601C3011A
:100D8000B2010E9442096B017C01B801110F880B6E
:100D9000990B0E94B608A70196010E94A7070E941E
:100DA0008508262F972F21C0A5019401281B390BF8
:100DB0004A0B5B0BCA01B9010E94B408A701960156
:100DC0000E9442096B017C01B801110F880B990B3D
:100DD0000E94B608A70196010E94A7070E948508F5
:100DE000262F972F02C0202F912F822FDF91CF9196
:100DF0001F910F91FF90EF90DF90CF90BF90AF9039
:100E00009F908F907F906F905F904F903F902F902A
:100E100008958AB182FB882780F9E2E0F8E38283B3
:100E20008AB183FB882780F981838AB1829581709A
:100E30008083828190E09C01220F331F220F331F99
:100E40009181892F90E0880F991F9081822B892BA7
:100E500080930138E09101388E2F90E08830910521
:100E6000E8F5FC01E25CFF4F0C94D10983E598E0C2
:100E70008093EF399093F03935C08EE599E08093F7
:100E8000EF399093F0392EC08CE59AE08093EF39DA
:100E90009093F03927C08AE89BE08093EF399093D4
:100EA000F03920C087E89CE08093EF399093F039C7
:100EB00019C08FE99DE08093EF399093F03912C00B
:100EC00080EA9EE08093EF399093F0390BC08FEF6A
:100ED0009FE08093EF399093F03904C01092EF397E
:100EE0001092F0398091EF399091F039089520E017
:100EF00030E040E050E0BA010EC0F901EE0FFF1FF4
:100F0000E80FF91F0190F081E02D4E0F5F1F611D6A
:100F1000711D2F5F3F4F223331057CF3CB01BA01A6
:100F200022E330E040E050E00E94AF09C90108959B
:100F30000E94120608950E940D06089580E1809394
:100F4000A00082E08093A10080E008955058BB2764
:100F5000AA270E94BE070C9408090E94FA0838F0DC
:100F60000E94010920F039F49F3F19F426F40C94F3
:100F7000F7080EF4E095E7FB0C94F108E92F0E94C6
:100F8000190958F3BA17620773078407950720F009
:100F900079F4A6F50C943B090EF4E0950B2EBA2FCC
:100FA000A02D0B01B90190010C01CA01A00111246F
:100FB000FF27591B99F0593F50F4503E68F11A161B
:100FC000F040A22F232F342F4427585FF3CF4695AC
:100FD00037952795A795F0405395C9F77EF41F16CE
:100FE000BA0B620B730B840BBAF09150A1F0FF0F98
:100FF000BB1F661F771F881FC2F70EC0BA0F621F84
:10100000731F841F48F4879577956795B795F79573
:101010009E3F08F0B0CF9395880F08F09927EE0F08
:101020009795879508950E9427080C9408090E94B7
:10103000010958F00E94FA0840F029F45F3F29F0B6
:101040000C94F10851110C943C090C94F7080E947F
:10105000190968F39923B1F3552391F3951B550BA7
:10106000BB27AA2762177307840738F09F5F5F4F7B
:10107000220F331F441FAA1FA9F335D00E2E3AF0BA
:10108000E0E832D091505040E695001CCAF72BD0D2
:10109000FE2F29D0660F771F881FBB1F2617370723
:1010A0004807AB07B0E809F0BB0B802DBF01FF2755
:1010B00093585F4F3AF09E3F510578F00C94F10839
:1010C0000C943C095F3FE4F3983ED4F38695779502
:1010D0006795B795F7959F5FC9F7880F911D96950E
:1010E000879597F90895E1E0660F771F881FBB1F6A
:1010F000621773078407BA0720F0621B730B840B17
:10110000BA0BEE1F88F7E09508950E94210988F038
:101110009F5798F0B92F9927B751B0F0E1F0660FBB
:10112000771F881F991F1AF0BA95C9F714C0B130FC
:1011300091F00E943B09B1E008950C943B09672FA0
:10114000782F8827B85F39F0B93FCCF3869577952B
:101150006795B395D9F73EF4909580957095619514
:101160007F4F8F4F9F4F0895E89409C097FB3EF43F
:1011700090958095709561957F4F8F4F9F4F9923E4
:10118000A9F0F92F96E9BB279395F6958795779562
:101190006795B795F111F8CFFAF4BB0F11F460FF22
:1011A0001BC06F5F7F4F8F4F9F4F16C0882311F07A
:1011B00096E911C0772321F09EE8872F762F05C08E
:1011C000662371F096E8862F70E060E02AF09A9529
:1011D000660F771F881FDAF7880F9695879597F91E
:1011E000089597F99F6780E870E060E008959FEFA9
:1011F00080EC089500240A941616170618060906AE
:10120000089500240A94121613061406050608957C
:10121000092E0394000C11F4882352F0BB0F40F404
:10122000BF2B11F460FF04C06F5F7F4F8F4F9F4F44
:10123000089557FD9058440F551F59F05F3F71F0C6
:101240004795880F97FB991F61F09F3F79F087952D
:101250000895121613061406551FF2CF4695F1DFB6
:1012600008C0161617061806991FF1CF8695710546
:10127000610508940895E894BB2766277727CB017A
:1012800097F908950E9455090C9408090E94FA08DC
:1012900038F00E94010920F0952311F00C94F10818
:1012A0000C94F70811240C943C090E94190970F35E
:1012B000959FC1F3950F50E0551F629FF001729FFB
:1012C000BB27F00DB11D639FAA27F00DB11DAA1F0A
:1012D000649F6627B00DA11D661F829F2227B00D57
:1012E000A11D621F739FB00DA11D621F839FA00DE2
:1012F000611D221F749F3327A00D611D231F849F32
:10130000600D211D822F762F6A2F11249F57504088
:101310009AF0F1F088234AF0EE0FFF1FBB1F661F03
:10132000771F881F91505040A9F79E3F510580F0CC
:101330000C94F1080C943C095F3FE4F3983ED4F31D
:10134000869577956795B795F795E7959F5FC1F770
:10135000FE2B880F911D9695879597F90895A1E228
:101360001A2EAA1BBB1BFD010DC0AA1FBB1FEE1F1F
:10137000FF1FA217B307E407F50720F0A21BB30B6A
:10138000E40BF50B661F771F881F991F1A9469F7E6
:1013900060957095809590959B01AC01BD01CF0142
:1013A0000895EE0FFF1F0590F491E02D0994F89435
:0213B000FFCF6D
:1013B2000107010000FF0F470357036B03B903EF57
:1013C200034C046803760365034F039903A003A744
:0C13D20003B203370379038904AB040065
:00000001FF
