:100000000C943E000C945B000C945B000C945B0021
:100010000C945B000C945B000C945B000C945B00F4
:100020000C9417030C945B000C945B000C945B0025
:100030000C945B000C945B000C9460000C945B00CF
:100040000C945B000C945B000C945B000C945B00C4
:100050000C945B000C945B000C945B000C945B00B4
:100060000C945B000C945B000C945B000C945B00A4
:100070000C945B000C945B000C945B0011241FBE7D
:10008000CFEFCDBFDFE3DEBF18E3A0E0B8E3EEE0E3
:10009000FDE002C005900D92A230B107D9F729E327
:1000A000A2E0B8E301C01D92AE34B207E1F70E94AE
:1000B00097000C9485060C9400000E94CF020895CE
:1000C0001F920F920FB60F9211242F938F939F932D
:1000D000809104388F5F8093043880910438843095
:1000E00028F081E080936D38109204388091373980
:1000F000882391F080910238909103380196809383
:100100000238909303388039914030F010920238D1
:10011000109203381092373981E08093560A9F91EC
:100120008F912F910F900FBE0F901F9018950E94E6
:100130005D0080E593EC80935C0A90935D0A80E01B
:1001400090E00E94120310923839109239391092BF
:100150003B3910923A3980E00E9434038BE00E94D0
:10016000620280933F399093403981E00E9462029D
:10017000809342399093433983E00E94340387E0AF
:100180000E94620280934A3990934B3980910038E3
:10019000882321F085E00E94340303C083E00E949D
:1001A000340387E00E94620280934A3990934B396E
:1001B00080910038882351F080914A3990914B39D1
:1001C000813D9C4018F410920038BDCF80910038DA
:1001D00081110BC080914A3990914B3985399941F1
:1001E00020F081E080930038AECF80EE90E38093E2
:1001F0004C3990934D39809100388823E1F18091FA
:100200003C39811126C080914A3990914B398B3FFE
:100210009D4330F081E080933A3980933C3969C046
:1002200080914A3990914B398138914158F48091AD
:100230004A3990914B390E94390460934839709340
:10024000493957C080EA91E38093483990934939FE
:1002500050C080914A3990914B39813B9B4328F49F
:1002600010923A3910923C3944C081E080933A3977
:1002700080933C393EC080913D39811129C08091E5
:100280004A3990914B398135904130F481E0809327
:100290003B3980933D392DC080914A3990914B393B
:1002A0000E942504609348397093493980914A39F6
:1002B00090914B3986319341E0F480914A39909185
:1002C0004B390E94100480934C3990934D3911C0E2
:1002D00080914A3990914B398032914128F01092A7
:1002E0003B3910923D3905C081E080933B398093C2
:1002F0003D3920913F393091403980914C3990916E
:100300004D392817390718F481E0809338398091E6
:10031000423990914339813A9B4018F081E08093B3
:10032000393980913B3981110CC080913A39811162
:1003300008C080913939811104C0809138398823EF
:1003400039F080E090E00E94120381E08093373919
:1003500080916D38882309F499C0809137398111D3
:1003600095C085E00E94340385E00E94620280937C
:10037000443990934539C0913639D0E08091443961
:1003800090914539FE01EE0FFF1FE75FF74C808328
:100390009183109205381092063810920738109207
:1003A000083880E090E01CC0FC01EE0FFF1FE75F03
:1003B000F74C208131814091053850910638609189
:1003C000073870910838420F531F611D711D40930B
:1003D00005385093063860930738709308380196B3
:1003E000823391050CF36091053870910638809145
:1003F00007389091083822E330E040E050E00E9456
:100400006306CC0FDD1FCE52D74C28833983E09092
:100410004839F090493900E010E0B90180E090E0FF
:100420001F921F922EE42F9320E22F93A12CB12C28
:10043000650120ED35E040E050E00E946C038093C0
:10044000463990934739E091363981E08E0F809399
:100450003639F0E08091463990914739EE0FFF1F11
:10046000E259F74C808391838091463990914739C6
:100470000E941203809136390F900F900F900F90C9
:10048000823311F41092363910926D38A8955BCEF4
:10049000E0E0F6E084E0818383E5828381E0868387
:1004A000808380E00895E0E0F6E0868381E0808745
:1004B000089580910B0681700895809110069091A7
:1004C000110608950E9453020E9459028823E1F305
:1004D0000E945D02E0E0F6E0238521602387089515
:1004E00080E0089540E168ED81E690E00E9401031C
:1004F00080E00895789480E0089580E008C0E82FB7
:10050000F0E0E05FFB4F9081986090838F5F8830D0
:10051000B0F380E008C0E82FF0E0E05DFB4F908191
:10052000986090838F5F8830B0F30895E1E1F4E044
:100530008081887F846080838081877F8083E5E1FC
:10054000F4E08081887F846080838081877F8083DE
:10055000E7E1F4E08081887F846080838081877F09
:100560008083E0E3F4E08081887F84608083808101
:10057000877F80830E944802089585B18D7F85B969
:1005800084B1826084B90E940503089581B1877F98
:1005900081B980B1886080B90E942D0308950E94BE
:1005A0007D0281B18E7F81B980B18E7F80B9E0E11B
:1005B000F4E08081877F808380818F778083808152
:1005C000887F808385B18B7F85B984B1846084B94D
:1005D00085B1877F85B984B1886084B90E94720231
:1005E0000E944D040E9496020E9452040E94BD0285
:1005F0000E94C6020E947A020E942B030E9470028F
:100600000895FC0164BF40830895E0E0FAE083E2CE
:10061000818381E0868720E23EE426A337A380839E
:1006200080E0089580933A0A90933B0A08951F92C0
:100630000F920FB60F9211248F9381E080930B0AD3
:1006400080913E398F5F80933E398F910F900FBE1E
:100650000F901F90189580E00895E0E5FAE081E0A2
:100660008583808380E008958230C9F028F4882350
:1006700049F0813069F02CC08430F9F0B8F0853051
:1006800019F126C01092A00083E480930206089519
:1006900081E18093A00083E480930206089584E4BE
:1006A0008093A00083E480930206089582E2809301
:1006B000A00083E480930206089583E38093A00062
:1006C00083E480930206089583E5809302060895EB
:1006D00083E68093020608954F925F926F927F9215
:1006E000AF92BF92CF92DF92EF92FF920F931F9340
:1006F000CF93DF93CDB7DEB76097CDBFDEBF6D83FD
:100700007E838F83988729013A01E986FA860B87D1
:100710001C8789A19AA1ABA1BCA1BC01CD016A191A
:100720007B098C099D090E94680569837A838B8304
:100730009C83C801B70164197509860997090E944D
:1007400068056D877E878F87988B9B01AC016981D7
:100750007A818B819C810E94C70469837A838B8311
:100760009C832D813E814F81588524153505460592
:10077000570510F4C50142C089859A85AB85BC85B3
:100780002D813E814F81588582179307A407B507B5
:10079000C0F429813A814B815C816D857E858F858E
:1007A00098890E94F6052B013C01C601B5010E9403
:1007B0006805A30192010E945B040E943905CB01E8
:1007C0001DC06D817E818F819885641975098609A8
:1007D00097090E94680529813A814B815C810E94BA
:1007E000F6052B013C01C601B5010E946805A30175
:1007F00092010E945B040E943905CB016096CDBF37
:10080000DEBFDF91CF911F910F91FF90EF90DF90AE
:10081000CF90BF90AF907F906F905F904F90089572
:10082000BC0180E090E00E9468052BE734E14EE4D3
:1008300050E40E94F60520E030ED41E655E40E94C8
:100840005A040E943905CB010895BC0180E090E074
:100850000E9468052DE33AE047EF5FE30E94F6054A
:1008600020E030EC4EE455E40E945A040E94390521
:100870000895BC0180E090E00E94680526EF38E210
:100880004CE650E40E94F60520E030EB4BE055E4E6
:100890000E945A040E943905089582E08093A100C5
:1008A00080E0089549E068ED80E091E00E94010356
:1008B00080E008955058BB27AA270E9472040C9428
:1008C000BC050E94AE0538F00E94B50520F039F451
:1008D0009F3F19F426F40C94AB050EF4E095E7FB6A
:1008E0000C94A505E92F0E94CD0558F3BA176207AD
:1008F00073078407950720F079F4A6F50C94EF05AB
:100900000EF4E0950B2EBA2FA02D0B01B90190012A
:100910000C01CA01A0011124FF27591B99F0593F6E
:1009200050F4503E68F11A16F040A22F232F342FB6
:100930004427585FF3CF469537952795A795F04004
:100940005395C9F77EF41F16BA0B620B730B840B19
:10095000BAF09150A1F0FF0FBB1F661F771F881FD1
:10096000C2F70EC0BA0F621F731F841F48F4879529
:1009700077956795B795F7959E3F08F0B0CF93951B
:10098000880F08F09927EE0F9795879508950E9494
:10099000DB040C94BC050E94B50558F00E94AE051E
:1009A00040F029F45F3F29F00C94A50551110C94F7
:1009B000F0050C94AB050E94CD0568F39923B1F3C3
:1009C000552391F3951B550BBB27AA276217730775
:1009D000840738F09F5F5F4F220F331F441FAA1F09
:1009E000A9F335D00E2E3AF0E0E832D091505040C5
:1009F000E695001CCAF72BD0FE2F29D0660F771F73
:100A0000881FBB1F261737074807AB07B0E809F058
:100A1000BB0B802DBF01FF2793585F4F3AF09E3FDD
:100A2000510578F00C94A5050C94F0055F3FE4F3B4
:100A3000983ED4F3869577956795B795F7959F5F20
:100A4000C9F7880F911D9695879597F90895E1E06C
:100A5000660F771F881FBB1F621773078407BA07CB
:100A600020F0621B730B840BBA0BEE1F88F7E09526
:100A700008950E94D50588F09F5798F0B92F9927BF
:100A8000B751B0F0E1F0660F771F881F991F1AF079
:100A9000BA95C9F714C0B13091F00E94EF05B1E0EA
:100AA00008950C94EF05672F782F8827B85F39F0E9
:100AB000B93FCCF3869577956795B395D9F73EF412
:100AC00090958095709561957F4F8F4F9F4F0895BA
:100AD000E89409C097FB3EF49095809570956195D8
:100AE0007F4F8F4F9F4F9923A9F0F92F96E9BB278E
:100AF0009395F695879577956795B795F111F8CF0A
:100B0000FAF4BB0F11F460FF1BC06F5F7F4F8F4F74
:100B10009F4F16C0882311F096E911C0772321F06A
:100B20009EE8872F762F05C0662371F096E8862F02
:100B300070E060E02AF09A95660F771F881FDAF759
:100B4000880F9695879597F9089597F99F6780E89C
:100B500070E060E008959FEF80EC089500240A940F
:100B60001616170618060906089500240A94121688
:100B70001306140605060895092E0394000C11F4BB
:100B8000882352F0BB0F40F4BF2B11F460FF04C068
:100B90006F5F7F4F8F4F9F4F089557FD9058440FC1
:100BA000551F59F05F3F71F04795880F97FB991FCC
:100BB00061F09F3F79F08795089512161306140689
:100BC000551FF2CF4695F1DF08C016161706180616
:100BD000991FF1CF86957105610508940895E894F1
:100BE000BB2766277727CB0197F908950E9409064E
:100BF0000C94BC050E94AE0538F00E94B50520F0AB
:100C0000952311F00C94A5050C94AB0511240C94BC
:100C1000F0050E94CD0570F3959FC1F3950F50E04C
:100C2000551F629FF001729FBB27F00DB11D639F9E
:100C3000AA27F00DB11DAA1F649F6627B00DA11D44
:100C4000661F829F2227B00DA11D621F739FB00DEA
:100C5000A11D621F839FA00D611D221F749F33275A
:100C6000A00D611D231F849F600D211D822F762FF3
:100C70006A2F11249F5750409AF0F1F088234AF0D0
:100C8000EE0FFF1FBB1F661F771F881F915050403C
:100C9000A9F79E3F510580F00C94A5050C94F00532
:100CA0005F3FE4F3983ED4F3869577956795B795C3
:100CB000F795E7959F5FC1F7FE2B880F911D9695DD
:100CC000879597F90895A1E21A2EAA1BBB1BFD0177
:100CD0000DC0AA1FBB1FEE1FFF1FA217B307E4071B
:100CE000F50720F0A21BB30BE40BF50B661F771F73
:100CF000881F991F1A9469F7609570958095909553
:0E0D00009B01AC01BD01CF010895F894FFCF17
:020D0E000100E2
:00000001FF
