:100000000C9487000C94A4000C94A4000C94A400FD
:100010000C94A4000C94A4000C94A4000C94A400D0
:100020000C94ED060C94A4000C94A4000C94A40071
:100030000C94A4000C94A9000C94A4000C94A400AB
:100040000C94A4000C94A4000C94A4000C94A400A0
:100050000C94A4000C94A4000C94A4000C94A40090
:100060000C94A4000C94A4000C94A4000C94A40080
:100070000C94A4000C94A4000C94A400EC08F308C5
:10008000FA08010908090F0916091D090763423614
:10009000B79BD8A71A39685618AEBAAB558C1D3C19
:1000A000B7CC5763BD6DEDFD753EF6177231BF00DD
:1000B0000000803F08000000BE922449123EABAA17
:1000C000AA2ABECDCCCC4C3E00000080BEABAAAA72
:1000D000AA3E00000000BF000000803F00000000BA
:1000E00000084178D3BB4387D1133D190E3CC3BDF3
:1000F0004282AD2B3E68EC8276BED98FE1A93E4CA0
:1001000080EFFFBE01C4FF7F3F000000000011240C
:100110001FBECFEFCDBFDFE3DEBF18E3A0E0B8E343
:10012000E6EEF9E102C005900D92AC32B107D9F7C5
:100130002BE3ACE2B8E301C01D92A834B207E1F7AB
:100140000E94E8000C94F10C0C9400000E94CC0377
:1001500008951F920F920FB60F9211242F938F9331
:100160009F938091F93A9091FA3A01968093F93AE7
:100170009093FA3A8091F93A9091FA3A04973CF0C8
:100180001092F93A1092FA3A81E08093F83A80910D
:100190003138882391F080912C3890912D38019638
:1001A00080932C3890932D388039914034F0109200
:1001B0002C3810922D381092313881E08093460A05
:1001C0009F918F912F910F900FBE0F901F901895B8
:1001D000CF93DF9300D0CDB7DEB70E94A600F8948E
:1001E000E0E3F4E080818068808380E593EC809395
:1001F0004C0A90934D0A8EEB90E0A0E0B0E0809323
:10020000F03A9093F13AA093F23AB093F33A88E738
:1002100080932A3B80912A3BE3E3FBE380831182B6
:10022000128243E050E0BF0180E60E94990680936D
:100230003A3B80E090E00E94470980E090E00E9415
:100240004A0985B1846085B985B1877F85B983E026
:1002500090E00E940A0785E00E9416038093F43A1A
:100260009093F53A8091F43A9091F53A843B910558
:1002700018F410928B3A03C081E080938B3A789403
:100280000E94BF08809305389093063881E090E083
:100290000E940A0788E00E94160380932D3B9093EA
:1002A0002E3B85E090E00E940A0786E00E9416033C
:1002B00080933B3B90933C3B80912D3B90912E3B18
:1002C0008831934320F481E08093303802C010924B
:1002D0003038809100388823D1F080913B3B909159
:1002E0003C3B813A9C4030F481E080932F3810925F
:1002F000003822C080913B3B90913C3B8736964230
:10030000D8F081E080932E381092003815C080918B
:100310003B3B90913C3B8C3D9D4070F080913B3B42
:1003200090913C3B8033954238F410922E381092D5
:100330002F3881E08093003880913138811112C0CC
:1003400080913038811108C080912F38811104C00C
:1003500080912E38882331F085B1886085B981E09D
:100360008093313883E090E00E940A0785E00E9484
:1003700016038093F43A9093F53A83E00E941603B3
:100380008093F63A9093F73A8091F83A882309F4EB
:1003900077CF89B1826089B91092F83A00918A3A90
:1003A00010E02091F63A3091F73AC801880F991F72
:1003B000FC01EA5DF54C208331832091F43A3091C1
:1003C000F53AFC01EE53F64C2083318386E29AE342
:1003D0000E942D09000F111F000F111FF801E65098
:1003E000F74C608371838283938300918A3A10E093
:1003F00082EC99E30E942D09000F111F000F111FBD
:10040000F801EE5CF74C6083718382839383809163
:1004100031388111E3C0E0918A3AF0E0EE0FFF1F1E
:10042000EE0FFF1FE650F74C60817181828193814E
:100430000F2EF0E2AF2EFEE4BF2EF02DC12CD12CFA
:1004400010E2E12E10EEF12E09E010E028E031E09C
:1004500041E050E00E944407A0E0B0E080932F3BD1
:100460009093303BA093313BB093323B80912F3B34
:100470009091303BA091313BB091323B8093363B21
:100480009093373BA093383BB093393B80912F3BFF
:100490009091303BA091313BB091323B0E94470993
:1004A0008091363B9091373BA091383BB091393BDE
:1004B0000E944A09A0900538B0900638E0918A3A27
:1004C000F0E0EE0FFF1FEE0FFF1FEE5CF74C6081B8
:1004D0007181828193810F2EF4EBCF2ED12CF02DE0
:1004E00028E031E041E050E00E94F407A0E0B0E0F5
:1004F0008093F03A9093F13AA093F23AB093F33AA2
:1005000080918A3A90E04091F03A5091F13A6091AE
:10051000F23A7091F33AFC01EE0FFF1FE457F54CED
:100520004083518320918B3A211115C0880F991F68
:10053000FC01E457F54C808191818B3B910538F0AB
:1005400085B1877F85B981E080938B3A17C085B1EB
:10055000886085B913C0880F991FFC01E457F54CDA
:1005600080819181863B910530F485B1886085B9A1
:1005700010928B3A03C085B1877F85B98091F03A9C
:100580009091F13AA091F23AB091F33A892F9A2FD3
:10059000AB2FBB2780932A3B8091F03A9091F13AA0
:1005A000A091F23AB091F33A80933D3B80912A3B7F
:1005B000898380913D3B8A8342E050E0BE016F5FBA
:1005C0007F4F80E60E94990680933A3B8091F43AEF
:1005D0009091F53A813B974008F4000080918A3A67
:1005E0008F5F80938A3A823310F010928A3AA895EE
:1005F00089B18D7F89B944CEE0E0F6E084E0818363
:1006000083E08283868381E0808380E00895E0E058
:10061000F6E0868381E08087089580910B068170E3
:100620000895809110069091110608950E94070385
:100630000E940D038823E1F30E941103E0E0F6E03D
:10064000238521602387089580E0089542E068EDC6
:1006500081E690E00E94D30680E00895789480E0DF
:10066000089580E008C0E82FF0E0E05FFB4F908144
:10067000986090838F5F8830B0F380E008C0E82FE7
:10068000F0E0E05DFB4F9081986090838F5F883051
:10069000B0F380E008C0E82FF0E0E05BFB4F908112
:1006A000986090838F5F8830B0F30895E3E1F4E0C1
:1006B0008081887F846080838081877F8083E5E17B
:1006C000F4E08081887F846080838081877F80835D
:1006D000E6E1F4E08081887F846080838081877F89
:1006E0008083E5E3F4E08081887F8460808380817B
:1006F000877F8083E4E3F4E08081887F8460808367
:100700008081877F80830E94FC02089585B18E7F5F
:1007100085B984B1816084B985B18D7F85B984B193
:10072000826084B90E94D70608950E940307089545
:1007300081B18B7F81B980B1846080B9E2E1F4E05E
:100740008081877F808380818F7780838081887F8D
:100750008083A0E0B2E011968C9111978061119690
:100760008C93119781B18D7F81B980B1826080B9FE
:10077000E1E1F4E08081877F808380818F778083CF
:100780008081887F808311968C911197806111966A
:100790008C930E94F50508950E94310385B18B7FEB
:1007A00085B984B1846084B985B1877F85B984B106
:1007B000886084B989B18D7F89B988B1826088B930
:1007C00088B18B7F88B9E2E5F4E08081877F808300
:1007D00088B1877F88B9E3E5F4E08081877F8083F3
:1007E00088B18F7E88B9E4E5F4E08081877F8083DB
:1007F0000E9426030E944D090E9456030E9455093B
:100800000E9486030E9495030E942E030E94010706
:100810000E9498030E9424030895E0E1F8E0848197
:1008200088608483858181608583EBEFFAE3808132
:100830008E7F808313868EE00895EBEFFAE380814C
:100840008E7F8083138680E00895E0E1F8E0848164
:10085000836084830E941D040895EBEFFAE3808196
:1008600088608083818190E0880F991F81608093E8
:10087000170884E008950E942D0408950E942D0415
:100880000895EBEFFAE38081886080838181880F8F
:100890008093170883E008950E9441040895ABEF08
:1008A000BAE38C91877F8C9382E01B968C931B9785
:1008B0005096ED91FC9151975C968D919C915D972E
:1008C0000995823019F0833021F006C00E943E0461
:1008D00008950E944C0408950E9425040895E0E1C3
:1008E000F8E084818B7F848384E00895E0E1F8E080
:1008F00084818B7F848383E00895E0E1F8E0848144
:10090000846084838481836084830E941D040895AD
:10091000E0E1F8E084818460848388E00895809138
:10092000150884FF19C0ABEFBAE35296ED91FC9124
:1009300053975E968D919C915F970995823019F03F
:10094000833021F006C00E943E0408950E944C04AA
:1009500008950E9425040895EBEFFAE38081877FD4
:100960008083A281B381CD010196828393838C9190
:100970008093180884819581019784839583892BBE
:1009800011F083E0089585E00895CF93DF93EBEFB6
:10099000FAE38081877F808384819581019731F498
:1009A000E0E1F8E084818460848305C0E0E1F8E060
:1009B00084818B7F8483EBEFFAE3848195810197B7
:1009C00084839583892BA9F0DF01C281D381E0E183
:1009D000F8E08085888312968D919C9113970196FB
:1009E00012968D939C93139784818260848384E014
:1009F00026C0ABEFBAE31296ED91FC91139780916C
:100A00001808808312968D919C91139701961296E7
:100A10008D939C9313978C9184608C931C96ED918D
:100A2000FC911D9758968D919C91599709958250EC
:100A3000823018F40E94880402C00E947D04DF9175
:100A4000CF9108958091150884FF19C0ABEFBAE3E8
:100A50005296ED91FC9153975E968D919C915F9784
:100A60000995823019F0833021F006C00E943E04BF
:100A700008950E944C0408950E9425040895ABEF48
:100A8000BAE38C9184608C931C96ED91FC911D9738
:100A900058968D919C9159970995833039F08430FF
:100AA00041F0823049F40E943E0408950E944C04B3
:100AB00008950E948F0408950E9425040895E0E19E
:100AC000F8E0858188608583ABEFBAE382E01B960E
:100AD0008C931B971E96ED91FC911F975A968D91C2
:100AE0009C915B970995823019F0833021F006C004
:100AF0000E943E0408950E944C0408950E940D0433
:100B00000895E0E1F8E084818860848385818160D4
:100B10008583EBEFFAE380818E7F808382E0838799
:100B20008EE00895CF93DF93E0E1F8E08581806C5B
:100B300085838091FB3A83FF07C08091150884FF6D
:100B400003C08FE08093053B8091150883FF03C0AD
:100B500080E18093053B8091150882FF03C081E10D
:100B60008093053BCBEFDAE3EA85F0E0EE0FFF1F61
:100B7000E95FF74C0190F081E02D09958A87DF91BC
:100B8000CF91089581E0089585E00895611571057C
:100B900091F090E0FC013696EE0FFF1FE550F54C0A
:100BA00060837183FC013C96EE0FFF1FE550F54C0E
:100BB00040835183089590E0FC013696EE0FFF1FAD
:100BC000E550F54C22EC35E020833183FC013C9666
:100BD000EE0FFF1FE550F54C108211820895AB0116
:100BE000BC0182E00E94C6050895E0E1F8E082E0E1
:100BF00080838FE5868381E0838308959091FB3A1B
:100C000091FD34C0EBEFFAE38183892F8E7F826000
:100C10009EE0928724EF31E020873187877F8460D0
:100C2000808382EC95E084879587108E118E86876D
:100C30009787128E138E808B918B148E158E828BDC
:100C4000938B168E178E84EC95E0848B958B10A277
:100C500011A2E0E1F8E0848188608483858181606D
:100C600085838581806C858380E0089581E0089587
:100C70008091150882FF07C0EBEFFAE380818E7F39
:100C8000808382E083878091FB3A80FD17C0EBEF81
:100C9000FAE38D7F80838FEF8183A0E1B8E0159622
:100CA0008C911597806C15968C93159713968C9153
:100CB00013978F7313968C938385089581E008951D
:100CC0009C019091FB3A92FF09C0EBEFFAE322837B
:100CD000338364837583892F8B7F808308959091FC
:100CE000FB3A90FD20C0EBEFFAE3916090838823FC
:100CF00021F081E08093053B03C082E08093053BB7
:100D00000E9492050AC080911508882324F08091E2
:100D1000150886FFF8CF0E9492058091FB3A80FD6E
:100D2000F2CF80E0089581E0089580E00E946F0690
:100D30000895CF92DF92EF92FF921F93CF93DF93AC
:100D4000182F7B016A01C0E1D7E2812F0E94FE05C6
:100D5000813011F42197C9F7CD2BC1F0B601C7013D
:100D60000E94600660E070E081ED96E00E94EF0571
:100D70000E949506C0E1D7E20E943806813011F446
:100D80002197D1F7CD2B21F482E003C081E001C08F
:100D900080E0DF91CF911F91FF90EF90DF90CF9097
:100DA000089583E00895FC0164BF40830895E0E066
:100DB000FAE083E3818380E29EE486A397A381E047
:100DC000808380E008958093380A9093390A0895CB
:100DD00080933A0A90933B0A08951F920F920FB6A0
:100DE0000F9211248F9381E080930B0A80911F3B17
:100DF0008F5F80931F3B8F910F900FBE0F901F90BE
:100E0000189580E00895E0E4FAE081E0858380832E
:100E100080E0089582309105D1F02CF4009751F0D4
:100E2000019771F02DC084309105F9F0BCF0059761
:100E300019F126C01092A00083E480930206089561
:100E400081E18093A00083E480930206089584E406
:100E50008093A00083E480930206089582E2809349
:100E6000A00083E480930206089583E38093A000AA
:100E700083E480930206089583E580930206089533
:100E800083E68093020608954F925F926F927F925D
:100E90008F929F92AF92BF92CF92DF92EF92FF928A
:100EA0000F931F93CF93DF93CDB7DEB72A97CDBFB4
:100EB000DEBF69837A838B839C8329013A01ED82AB
:100EC000FE820F831887C986DA86B5016C197D0901
:100ED000072E000C880B990B0E94A70A6B017C015E
:100EE0006D817E818F8198856419750986099709BE
:100EF0000E94A70A4B015C019B01AC01C701B6012E
:100F00000E94CA096B017C016093443B7093453B8E
:100F10008093463B9093473B29813A814B815C818A
:100F2000241535054605570508F443C08D819E817B
:100F3000AF81B88582179307A407B507C8F4A70146
:100F40009601C501B4010E94200C4B015C01A985EA
:100F5000BA85BD01BB0F880B990B0E94A70AA5019A
:100F600094010E945E090E94760A262F972F23C0C3
:100F700069817A818B819C81641975098609970939
:100F80000E94A50AA70196010E94200C4B015C015A
:100F900029853A85B901330F880B990B0E94A70A5E
:100FA000A50194010E945E090E94760A262F972FC0
:100FB00002C029859A8520933E3B90933F3B822F28
:100FC0002A96CDBFDEBFDF91CF911F910F91FF9089
:100FD000EF90DF90CF90BF90AF909F908F907F90D9
:100FE0006F905F904F9008954F925F926F927F92B3
:100FF0008F929F92AF92BF92CF92DF92EF92FF9229
:101000000F931F93CF93DF93CDB7DEB76297CDBF1A
:10101000DEBF2B013C012D833E834F835887E98639
:10102000FA860B871C87A98ABA8AB501BB0C880B84
:10103000990B0E94A70A4B015C01B601DD0C880BDD
:10104000990B0E94A70A6B017C019B01AC01C501B1
:10105000B4010E94CA090E94A40B4B015C0169857E
:101060007A858B859C850E94A70A6D877E878F87EE
:10107000988B6D817E818F8198850E94A70A6983F4
:101080007A838B839C839B01AC016D857E858F85E4
:1010900098890E945D099B01AC01C501B4010E94C1
:1010A000CA094B015C016093203B7093213B809304
:1010B000223B9093233B0E94440A29813A814B8131
:1010C0005C810E948D0C9B01AC01C701B6010E949E
:1010D000CA096B017C016093243B7093253B80938C
:1010E000263B9093273B8D819E81AF81B885481622
:1010F00059066A067B0608F189859A85AB85BC8509
:1011000084159505A605B70518F439892A8917C0ED
:10111000C301B2010E94A50AA50194010E94200CFE
:101120000E94440A9B01AC01C701B6010E94200C39
:101130000E94760A362F272F02C030E020E030933D
:101140003E3B20933F3B832F922FA989BA89A81752
:10115000B90708F4CD016296CDBFDEBFDF91CF9114
:101160001F910F91FF90EF90DF90CF90BF90AF90C5
:101170009F908F907F906F905F904F9008958AB16D
:1011800082FB882780F9E2E0F8E382838AB183FB5F
:10119000882780F981838AB18295817080838281DA
:1011A00090E09C01220F331F220F331F9181892F62
:1011B00090E0880F991F9081822B892B80930138B2
:1011C000E09101388E2F90E088309105E8F5FC0120
:1011D000E25CFF4F0C94EB0C83E598E08093283B96
:1011E0009093293B35C08EE599E08093283B9093FE
:1011F000293B2EC08CE59AE08093283B9093293BB5
:1012000027C08AE89BE08093283B9093293B20C02D
:1012100087E89CE08093283B9093293B19C08FE995
:101220009DE08093283B9093293B12C080EA9EE08A
:101230008093283B9093293B0BC08FEF9FE08093D6
:10124000283B9093293B04C01092283B1092293BE5
:101250008091283B9091293B089520E030E040E0C8
:1012600050E0BA010EC0F901EE0FFF1FE80FF91FA1
:101270000190F081E02D4E0F5F1F611D711D2F5FEA
:101280003F4F223331057CF3CB01BA0108950E9410
:10129000E80608950E94E306089580E18093A00087
:1012A00082E08093A10080E0089549E068ED80E04D
:1012B00091E00E94D30680E008955058BB27AA27EA
:1012C0000E9475090C94200B0E94120B38F00E94AA
:1012D000190B20F039F49F3F19F426F40C94E80A16
:1012E0000EF4E095E7FB0C94E20AE92F0E94310B23
:1012F00058F3BA17620773078407950720F079F44B
:10130000A6F50C94530B0EF4E0950B2EBA2FA02DDE
:101310000B01B90190010C01CA01A0011124FF27A2
:10132000591B99F0593F50F4503E68F11A16F0409D
:10133000A22F232F342F4427585FF3CF469537959C
:101340002795A795F0405395C9F77EF41F16BA0B61
:10135000620B730B840BBAF09150A1F0FF0FBB1F0F
:10136000661F771F881FC2F70EC0BA0F621F731F58
:10137000841F48F4879577956795B795F7959E3FB5
:1013800008F0B0CF9395880F08F09927EE0F979546
:10139000879508950E94DE090C94200B0E94190B7A
:1013A00058F00E94120B40F029F45F3F29F00C9492
:1013B000E20A51110C94540B0C94E80A0E94310B70
:1013C00068F39923B1F3552391F3951B550BBB2774
:1013D000AA2762177307840738F09F5F5F4F220FB9
:1013E000331F441FAA1FA9F335D00E2E3AF0E0E8B0
:1013F00032D091505040E695001CCAF72BD0FE2FFA
:1014000029D0660F771F881FBB1F2617370748078D
:10141000AB07B0E809F0BB0B802DBF01FF27935845
:101420005F4F3AF09E3F510578F00C94E20A0C941D
:10143000540B5F3FE4F3983ED4F386957795679518
:10144000B795F7959F5FC9F7880F911D969587957A
:1014500097F90895E1E0660F771F881FBB1F621799
:1014600073078407BA0720F0621B730B840BBA0B57
:10147000EE1F88F7E095089529F416F00C94E20A1F
:101480000C94530B0C94E80A0E94390BA8F396387D
:10149000A0F707F80F92E8942BE33AEA48EB5FE7EE
:1014A0000E94360C0F920F920F924DB75EB70F92BB
:1014B0000E94EC0BECE8F0E00E94EB0A4F915F9188
:1014C000EF91FF91E595EE1FFF1F49F0FE57E06891
:1014D0004427EE0F441FFA95E1F74195550B0E9402
:1014E000660B0F9007FE0C945A0B08950E94390B5F
:1014F00088F09F5798F0B92F9927B751B0F0E1F0D5
:10150000660F771F881F991F1AF0BA95C9F714C084
:10151000B13091F00E94530BB1E008950C94530B3D
:10152000672F782F8827B85F39F0B93FCCF38695BD
:1015300077956795B395D9F73EF49095809570951A
:1015400061957F4F8F4F9F4F0895E89409C097FB97
:101550003EF490958095709561957F4F8F4F9F4F8A
:101560009923A9F0F92F96E9BB279395F6958795CE
:1015700077956795B795F111F8CFFAF4BB0F11F491
:1015800060FF1BC06F5F7F4F8F4F9F4F16C0882338
:1015900011F096E911C0772321F09EE8872F762F6E
:1015A00005C0662371F096E8862F70E060E02AF0AF
:1015B0009A95660F771F881FDAF7880F969587959B
:1015C00097F9089597F99F6780E870E060E00895C3
:1015D0009FEF80EC0895DF93CF931F930F93FF92BB
:1015E000EF92DF927B018C01689406C0DA2EEF0146
:1015F0000E94330CFE01E894A59125913591459107
:101600005591A6F3EF010E947509FE019701A8010B
:10161000DA9469F7DF90EF90FF900F911F91CF91CF
:10162000DF91089500240A94161617061806090675
:10163000089500240A941216130614060506089548
:10164000092E0394000C11F4882352F0BB0F40F4D0
:10165000BF2B11F460FF04C06F5F7F4F8F4F9F4F10
:10166000089557FD9058440F551F59F05F3F71F092
:101670004795880F97FB991F61F09F3F79F08795F9
:101680000895121613061406551FF2CF4695F1DF82
:1016900008C0161617061806991FF1CF8695710512
:1016A000610508940895E894BB2766277727CB0146
:1016B00097F908959B01AC0160E070E080E89FE33A
:1016C0000C94CA090C94E20A0C94DD0C0E94390BAC
:1016D000D8F39923C9F3940F511DA3F391505040AF
:1016E00094F059F0882332F0660F771F881F9150CD
:1016F0005040C1F79E3F51052CF7880F911D9695DC
:10170000879597F908955F3FACF0983E9CF0BB2712
:10171000869577956795B79508F4B1609395C1F76D
:10172000BB0F58F711F460FFE8CF6F5F7F4F8F4F0B
:101730009F4FE3CF0C94540B16F00C94DD0C0C94DB
:10174000E80A68940C94E20A0E94390BA8F39923E2
:10175000C1F3AEF3DF93CF931F930F93FF92C92F83
:10176000DD2788232AF02197660F771F881FDAF775
:1017700020E030E040E85FEB9FE3883920F0803ED6
:1017800038F021968F770E945E09E4EBF0E004C008
:101790000E945E09E1EEF0E00E94EB0A8B01BE01BF
:1017A000EC01FB2E6F5771097595771F880B990B0C
:1017B0000E94A70A28E132E741E35FE30E94330C6D
:1017C000AF2D9801AE01FF900F911F91CF91DF9146
:1017D0000E9475090C94200BFA01DC01AA0FBB1FB3
:1017E0009B01AC01BF5728F42227332744275078A8
:1017F00020C0B75190F4AB2F00244695379527951C
:10180000011CA395D2F3002071F0220F331F441F57
:10181000B395DAF30ED00C945D0961307105A0E840
:101820008A07B94630F49B01AC01662777278827E1
:101830009078309621F0208331834283538308953A
:101840000E94330C0C94200B0E94120B38F00E9463
:10185000190B20F0952311F00C94E20A0C94E80A7D
:1018600011240C94540B0E94310B70F3959FC1F31B
:10187000950F50E0551F629FF001729FBB27F00D3E
:10188000B11D639FAA27F00DB11DAA1F649F662793
:10189000B00DA11D661F829F2227B00DA11D621FE2
:1018A000739FB00DA11D621F839FA00D611D221F9C
:1018B000749F3327A00D611D231F849F600D211D80
:1018C000822F762F6A2F11249F5750409AF0F1F003
:1018D00088234AF0EE0FFF1FBB1F661F771F881F6C
:1018E00091505040A9F79E3F510580F00C94E20AB8
:1018F0000C94540B5F3FE4F3983ED4F386957795B0
:101900006795B795F795E7959F5FC1F7FE2B880F11
:10191000911D9695879597F90895FA01EE0FFF1F8F
:10192000309621053105A1F16115710561F480380A
:10193000BFE39B0749F168949038810561F08038D6
:10194000BFEF9B0741F099234AF5FF3FE1053105C1
:10195000210519F1E8940894E795D901AA2329F4FF
:10196000AB2FBE2FF85FD0F310C0FF5F70F4A695C9
:10197000E0F7F73950F019F0FF3A38F49F779F936A
:101980000DD00F9007FC9058089546F00C94E80A8B
:1019900060E070E080E89FE308954FE79F775F93F2
:1019A0004F933F932F930E94A40B2F913F914F9100
:1019B0005F910E94200C0C94440A9F3F31F091509B
:1019C00020F4879577956795B795880F911D969523
:1019D000879597F90895EE0FFF1F0590F491E02D7C
:0619E0000994F894FFCF0A
:1019E6000107010000FF0F1D042D0441048F04C5EB
:1019F6000422053E044C043B0425046F0476047D52
:0C1A06000488040D044F045F05810500F6
:00000001FF
