:100000000C9445000C9462000C9462000C94620005
:100010000C9462000C9462000C9462000C946200D8
:100020000C9467000C9462000C9462000C946200C3
:100030000C9462000C9462000C9462000C946200B8
:100040000C9462000C9462000C9462000C946200A8
:100050000C9462000C9462000C9462000C94620098
:100060000C9462000C9462000C9462000C94620088
:100070000C9462000C9462000C94620097049D043E
:10008000A404AB04B204B904BD0411241FBECFEF15
:10009000CDBFDFE3DEBF18E3A0E0B8E3EEECF9E0AC
:1000A00002C005900D92AC30B107D9F728E3ACE05F
:1000B000B8E301C01D92AF33B207E1F70E946602B8
:1000C0000C94E5040C9400000E94450408951F92CE
:1000D0000F920FB60F9211242F938F939F9381E06D
:1000E000809328388091083890910938892BB1F491
:1000F000809114389091153801968093143890931C
:1001000015388091143890911538893E934034F019
:1001100081E090E080930838909309388091063808
:1001200090910738892BB1F480911238909113384F
:1001300001968093123890931338809112389091E1
:100140001338893E934034F081E090E08093063884
:10015000909307388091043890910538892BB1F439
:1001600080911038909111380196809310389093B7
:1001700011388091103890911138893E934034F0B5
:1001800081E090E0809304389093053880910238A4
:1001900090910338892BB1F480910E3890910F38EB
:1001A000019680930E3890930F3880910E3890917D
:1001B0000F38893E934034F081E090E0809302381C
:1001C000909303388091003890910138892BB1F4D5
:1001D00080910C3890910D38019680930C38909353
:1001E0000D3880910C3890910D38893E934034F051
:1001F00081E090E0809300389093013881E0809313
:100200000B0A9F918F912F910F900FBE0F901F900F
:1002100018950E94990389B1816089B9089583E096
:100220000E948E048AE00E94AE038093333890933C
:10023000343883E00E94AE0380933B3890933C387F
:1002400080E00E94AE0380932B3890932C3820914D
:1002500033383091343880913B3890913C38280FB6
:10026000391F80912B3890912C38280F391FABEA19
:10027000BAEA0E94D6049695879580932D3890937C
:100280002E3885E00E948E0482E00E94AE038093A7
:100290003D3890933E3880E00E948E0482E00E94B8
:1002A000AE03809335389093363880E00E948E04F8
:1002B00088E00E94AE038093393890933A3889E001
:1002C0000E94AE0380932F389093303885E00E94CF
:1002D000AE03809337389093383884E00E94AE03A1
:1002E000809331389093323881E00E94AE0380933E
:1002F000293890932A3808959C0190910A389130BA
:1003000059F018F09230A9F00895683E7741B8F09E
:1003100081E080930B3808956936764118F4109285
:100320000B380895283C3E4150F082E080930B3812
:100330000895283A3D4118F481E080930B380895E0
:1003400021E08034934008F420E0822F089521E0DA
:100350008835914108F020E0822F089591E08927A7
:1003600021F099B1926099B903C099B19D7F99B973
:10037000882321F095B1926095B903C095B19D7F16
:1003800095B9882321F095B1986095B903C095B1CE
:10039000977F95B9882321F095B1946095B903C0F2
:1003A00095B19B7F95B9882321F085B1806185B98E
:1003B000089585B18F7E85B9089520910A3890916E
:1003C0000B382917B9F0882311F0823031F480E01E
:1003D0000E94AE0180E090E00895813029F40E94EF
:1003E000AE0181E090E0089580E00E94AE0180E0DF
:1003F00090E008958DE99FEF0895861771F08823A6
:1004000031F080E00E94AE0180E090E0089581E04C
:100410000E94AE0181E090E008958DE99FEF08957C
:1004200091E096278330F9F028F4813041F0823052
:1004300081F00895843009F1853049F108959923B8
:1004400021F089B1826089B9089589B18D7F89B918
:100450000895992321F085B1826085B9089585B109
:100460008D7F85B90895992321F085B1886085B97C
:10047000089585B1877F85B90895992321F085B1C5
:10048000846085B9089585B18B7F85B908959923D6
:1004900021F085B1806185B9089585B18F7E85B9D8
:1004A0000895662341F0411106C060E00E941002E9
:1004B00080E090E00895611108C0442331F061E0CC
:1004C0000E94100281E090E0089508950E94640067
:1004D0000E94090180912838882309F41CC10E94D8
:1004E0000F01609135387091363880913D38909188
:1004F0003E380E947C018091393890913A380E94B0
:10050000A0018093273880912F38909130380E9435
:10051000A0018093263880913738909138380E9416
:10052000A0018093253880913138909132380E9413
:10053000A001809324388091293890912A380E9414
:10054000A0018093233880913338909134380E94F1
:10055000A7018093223880913B3890913C380E94CB
:10056000A7018093213880912B3890912C380E94DC
:10057000A7018093203860910A3880910B380E943F
:10058000DD0180931638909317388091163890913A
:100590001738892B51F060911A38809122380E94C7
:1005A000FD018093163890931738809116389091FA
:1005B0001738892B51F060911938809121380E94A9
:1005C000FD018093163890931738809116389091DA
:1005D0001738892B51F060911838809120380E948B
:1005E000FD018093163890931738809116389091BA
:1005F0001738892B09F47DC080910838909109380B
:10060000892B99F040911F386091273881E00E9432
:10061000510280930838909309388091273880934D
:100620001F38109214381092153880910638909126
:100630000738892B99F040911E386091263882E066
:100640000E94510280930638909307388091263893
:1006500080931E381092123810921338809104380B
:1006600090910538892B99F040911D38609125387B
:1006700083E00E9451028093043890930538809162
:10068000253880931D3810921038109211388091BF
:10069000023890910338892B99F040911C38609171
:1006A000243884E00E9451028093023890930338EA
:1006B0008091243880931C3810920E3810920F3895
:1006C0008091003890910138892B99F040911B3826
:1006D0006091233885E00E94510280930038909306
:1006E00001388091233880931B3810920C38109277
:1006F0000D3880910B3880930A388091223880938E
:100700001A3880912138809319388091203880934D
:100710001838109228380E94C104DCCEE0E4F6E0DC
:1007200081E0868B93E0918391E19283808380E0E6
:100730000895E0E4F6E08081816080830895E0E43C
:10074000F6E0868381E08087089580914B06817072
:100750000895809150069091510608950E949F033C
:100760000E94A5038823E1F30E94A903E0E4F6E0D8
:10077000238521602387089580E0089543E168ED93
:1007800081E690E00E947C0480E00895789480E007
:10079000089580E008C0E82FF0E0E05FFB4F908113
:1007A000986090838F5F8830B0F380E008C0E82FB6
:1007B000F0E0E05DFB4F9081986090838F5F883020
:1007C000B0F380E008C0E82FF0E0E05BFB4F9081E1
:1007D000986090838F5F8830B0F30895E4E1F4E08F
:1007E0008081887F846080838081877F8083E5E14A
:1007F000F4E08081887F846080838081877F80832C
:10080000E6E1F4E08081887F846080838081877F57
:100810008083E7E1F4E08081887F84608083808149
:10082000877F8083E7E3F4E08081887F8460808332
:100830008081877F8083E6E3F4E08081887F846025
:1008400080838081877F8083E2E5F4E08081887FF8
:10085000846080838081877F8083E3E5F4E080810A
:10086000887F846080838081877F8083E4E5F4E0F3
:100870008081887F846080838081877F80830E94DD
:100880008E0308950E94820408950E94C90385B1D1
:100890008D7F85B984B1826084B985B18B7F85B93C
:1008A00084B1846084B985B1877F85B984B188605B
:1008B00084B985B18F7E85B984B1806184B989B1ED
:1008C0008E7F89B988B1816088B989B18D7F89B9F6
:1008D00088B1826088B90E94BE030E94C3040E944E
:1008E000EE030E94C8040E9442040E94C6030E94B4
:1008F00080040E94BC030895FC0164BF40830895F6
:1009000080E00895E0E0FAE081E0828788EE93E0FD
:1009100086A397A383E0808380E0089590E08730EA
:10092000910570F5FC01E25CFF4F0C94D00410922D
:10093000A20081E480934206089581E18093A200A1
:1009400081E080934206089584E48093A20081E0D0
:1009500080934206089582E28093A20081E0809312
:100960004206089583E38093A20081E080934206CB
:10097000089581E180934206089581E280934206C2
:100980000895A895089580E18093A10080E00895DE
:1009900048E068ED80E091E00E947C0480E00895EA
:1009A000EE0FFF1F0590F491E02D0994A29FB00176
:1009B000B39FC001A39F700D811D1124911DB29F93
:0E09C000700D811D1124911D0895F894FFCF34
:0C09CE0001000100010001000100010116
:00000001FF
