:100000000C9487000C94A4000C94A4000C94A400FD
:100010000C94A4000C94A4000C94A4000C94A400D0
:100020000C94D0060C94A4000C94A4000C94A4008E
:100030000C94A4000C94A9000C94A4000C94A400AB
:100040000C94A4000C94A4000C94A4000C94A400A0
:100050000C94A4000C94A4000C94A4000C94A40090
:100060000C94A4000C94A4000C94A4000C94A40080
:100070000C94A4000C94A4000C94A400CF08D608FF
:10008000DD08E408EB08F208F908000907634236C6
:10009000B79BD8A71A39685618AEBAAB558C1D3C19
:1000A000B7CC5763BD6DEDFD753EF6177231BF00DD
:1000B0000000803F08000000BE922449123EABAA17
:1000C000AA2ABECDCCCC4C3E00000080BEABAAAA72
:1000D000AA3E00000000BF000000803F00000000BA
:1000E00000084178D3BB4387D1133D190E3CC3BDF3
:1000F0004282AD2B3E68EC8276BED98FE1A93E4CA0
:1001000080EFFFBE01C4FF7F3F000000000011240C
:100110001FBECFEFCDBFDFE3DEBF18E3A0E0B8E343
:10012000EEEAF9E102C005900D92AC32B107D9F7C1
:100130002AE3ACE2B8E301C01D92A83EB207E1F7A2
:100140000E94E4000C94D40C0C9400000E94AF03B5
:1001500008951F920F920FB60F9211242F938F9331
:100160009F938091953A9091963A01968093953A13
:100170009093963A8091953A9091963A04971CF014
:1001800081E08093943A80913538882391F0809172
:100190002C3890912D38019680932C3890932D38DF
:1001A0008039914034F010922C3810922D381092F2
:1001B000353881E08093460A9F918F912F910F905F
:1001C0000FBE0F901F901895CF93DF9300D0CDB73F
:1001D000DEB70E94A600F894E0E3F4E08081806836
:1001E000808380E593EC80934C0A90934D0A88E7D6
:1001F0008093C63A8091C63AE3EDFAE38083118298
:10020000128243E050E0BF0180E60E947C068093AA
:10021000DA3A80E090E00E942A0980E090E00E94B3
:100220002D0985B1846085B985B1877F85B983E063
:1002300090E00E94ED0685E00E94F9028093903ADA
:100240009093913A8091903A9091913A843B9105A4
:1002500018F410928F3A03C081E080938F3A78941B
:100260000E94A208809305389093063881E090E0C0
:100270000E94ED0688E00E94F9028093CD3A9093A7
:10028000CE3A85E090E00E94ED0686E00E94F902F9
:100290008093DB3A9093DC3A8091CD3A9091CE3ABC
:1002A0008831934320F481E08093343802C0109267
:1002B0003438809100388823D1F08091DB3A9091D6
:1002C000DC3A813A9C4030F481E0809333381092DC
:1002D000003822C08091DB3A9091DC3A8736964212
:1002E000D8F081E0809332381092003815C08091A8
:1002F000DB3A9091DC3A8C3D9D4070F08091DB3A86
:100300009091DC3A8033954238F410923238109252
:10031000333881E08093003880913538811112C0E4
:1003200080913438811108C080913338811104C024
:1003300080913238882331F085B1886085B981E0B9
:100340008093353883E090E00E94ED0685E00E94BE
:10035000F9028093903A9093913A83E00E94F902D7
:100360008093923A9093933A8091943A882309F437
:1003700077CF1092943A00918E3A10E02091923A01
:100380003091933AC801880F991FFC01E65DF54C46
:10039000208331832091903A3091913AFC01EA53C5
:1003A000F64C208331838AE29AE30E941009000F01
:1003B000111F000F111FF801E250F74C6083718389
:1003C0008283938300918E3A10E086EC99E30E9439
:1003D0001009000F111F000F111FF801EA5CF74C04
:1003E0006083718382839383809135388111DCC06F
:1003F000E0918E3AF0E0EE0FFF1FEE0FFF1FE2508C
:10040000F74C60817181828193810F2EF0E2AF2ED3
:10041000FEE4BF2EF02DC12CD12C10E2E12E10EE07
:10042000F12E09E010E028E031E041E050E00E94C8
:100430002707A0E0B0E08093CF3A9093D03AA09302
:10044000D13AB093D23A8091CF3A9091D03AA091DC
:10045000D13AB091D23A8093D63A9093D73AA093BA
:10046000D83AB093D93A8091CF3A9091D03AA091AE
:10047000D13AB091D23A0E942A098091D63A90910D
:10048000D73AA091D83AB091D93A0E942D09E0917B
:100490008E3AF0E0EE0FFF1FEE0FFF1FEA5CF74C05
:1004A0004080518062807380C301B201645D784FE7
:1004B000810991090E94880A20EC3BEA42E259E452
:1004C0000E94AD0920E030E048EC52E40E94030CA9
:1004D00060932E3870932F38809330389093313852
:1004E000A0900538B09006380F2EF4EBCF2ED12C0B
:1004F000F02D28E031E041E050E0C301B2010E945C
:10050000D707A0E0B0E08093C73A9093C83AA09391
:10051000C93AB093CA3AE0918F3AF0E0E455F64612
:10052000808190E0A0E0B0E04091C73A5091C83A95
:100530006091C93A7091CA3A481759076A077B0710
:1005400020F085B1877F85B909C085B1886085B9FC
:1005500090918F3A81E0892780938F3A8091C73AB2
:100560009091C83AA091C93AB091CA3A892F9A2F6E
:10057000AB2FBB278093C63A8091C73A9091C83A77
:10058000A091C93AB091CA3A8093DD3A8091C63AB7
:1005900089838091DD3A8A8342E050E0BE016F5F3B
:1005A0007F4F80E60E947C0680918E3A8F5F809319
:1005B0008E3A823310F010928E3AA89551CEE0E038
:1005C000F6E084E0818383E08283868381E0808318
:1005D00080E00895E0E0F6E0868381E0808708957A
:1005E00080910B06817008958091100690911106FC
:1005F00008950E94EA020E94F0028823E1F30E941B
:10060000F402E0E0F6E0238521602387089580E08E
:10061000089542E068ED81E690E00E94B60680E031
:100620000895789480E0089580E008C0E82FF0E015
:10063000E05FFB4F9081986090838F5F8830B0F3CC
:1006400080E008C0E82FF0E0E05DFB4F908198600B
:1006500090838F5F8830B0F380E008C0E82FF0E02F
:10066000E05BFB4F9081986090838F5F8830B0F3A0
:100670000895E3E1F4E08081887F84608083808155
:10068000877F8083E5E1F4E08081887F84608083D8
:100690008081877F8083E6E1F4E08081887F8460C9
:1006A00080838081877F8083E5E3F4E08081887F99
:1006B000846080838081877F8083E4E3F4E08081AD
:1006C000887F846080838081877F80830E94DF02AF
:1006D000089585B18E7F85B984B1816084B985B173
:1006E0008D7F85B984B1826084B90E94BA0608956D
:1006F0000E94E606089581B18B7F81B980B1846044
:1007000080B9E2E1F4E08081877F808380818F7708
:1007100080838081887F8083A0E0B2E011968C91F5
:100720001197806111968C93119781B18D7F81B95A
:1007300080B1826080B9E1E1F4E08081877F8083CD
:1007400080818F7780838081887F808311968C91D0
:100750001197806111968C930E94D80508950E948C
:10076000140385B18B7F85B984B1846084B985B168
:10077000877F85B984B1886084B989B18D7F89B953
:1007800088B1826088B988B18B7F88B9E2E5F4E0EE
:100790008081877F808388B1877F88B9E3E5F4E033
:1007A0008081877F808388B18F7E88B9E4E5F4E01B
:1007B0008081877F80830E9409030E9430090E9404
:1007C00039030E9438090E9469030E9478030E943D
:1007D00011030E94E4060E947B030E940703089510
:1007E000E0E1F8E08481886084838581816085838D
:1007F000E7E9FAE380818E7F808313868EE0089597
:10080000E7E9FAE380818E7F8083138680E0089594
:10081000E0E1F8E08481836084830E94000408950D
:10082000E7E9FAE3808188608083818190E0880F26
:10083000991F81608093170884E008950E94100436
:1008400008950E9410040895E7E9FAE38081886022
:1008500080838181880F8093170883E008950E9428
:1008600024040895A7E9BAE38C91877F8C9382E0F2
:100870001B968C931B975096ED91FC9151975C962B
:100880008D919C915D970995823019F0833021F00C
:1008900006C00E94210408950E942F0408950E941A
:1008A00008040895E0E1F8E084818B7F848384E08C
:1008B0000895E0E1F8E084818B7F848383E00895EC
:1008C000E0E1F8E0848184608483848183608483B0
:1008D0000E9400040895E0E1F8E08481846084834C
:1008E00088E008958091150884FF19C0A7E9BAE34C
:1008F0005296ED91FC9153975E968D919C915F97E6
:100900000995823019F0833021F006C00E9421043D
:1009100008950E942F0408950E9408040895E7E9AD
:10092000FAE38081877F8083A281B381CD01019624
:10093000828393838C918093180884819581019799
:1009400084839583892B11F083E0089585E00895D1
:10095000CF93DF93E7E9FAE38081877F8083848107
:100960009581019731F4E0E1F8E08481846084832B
:1009700005C0E0E1F8E084818B7F8483E7E9FAE356
:1009800084819581019784839583892BA9F0DF0168
:10099000C281D381E0E1F8E08085888312968D9151
:1009A0009C911397019612968D939C931397848133
:1009B0008260848384E026C0A7E9BAE31296ED91B1
:1009C000FC91139780911808808312968D919C91C9
:1009D0001397019612968D939C9313978C91846034
:1009E0008C931C96ED91FC911D9758968D919C913E
:1009F000599709958250823018F40E946B0402C006
:100A00000E946004DF91CF9108958091150884FFC2
:100A100019C0A7E9BAE35296ED91FC9153975E96FF
:100A20008D919C915F970995823019F0833021F068
:100A300006C00E94210408950E942F0408950E9478
:100A400008040895A7E9BAE38C9184608C931C96FE
:100A5000ED91FC911D9758968D919C915997099510
:100A6000833039F0843041F0823049F40E9421040F
:100A700008950E942F0408950E94720408950E9410
:100A800008040895E0E1F8E0858188608583A7E99E
:100A9000BAE382E01B968C931B971E96ED91FC9116
:100AA0001F975A968D919C915B970995823019F00A
:100AB000833021F006C00E94210408950E942F0473
:100AC00008950E94F0030895E0E1F8E084818860D1
:100AD0008483858181608583E7E9FAE380818E7F65
:100AE000808382E083878EE00895CF93DF93E0E1F7
:100AF000F8E08581806C85838091973A83FF07C0F9
:100B00008091150884FF03C08FE08093A13A809103
:100B1000150883FF03C080E18093A13A80911508F6
:100B200082FF03C081E18093A13AC7E9DAE3EA8555
:100B3000F0E0EE0FFF1FE95FF74C0190F081E02D30
:100B400009958A87DF91CF91089581E0089585E026
:100B500008956115710591F090E0FC013696EE0F55
:100B6000FF1FE956F54C60837183FC013C96EE0F44
:100B7000FF1FE956F54C40835183089590E0FC0136
:100B80003696EE0FFF1FE956F54C25EA35E0208337
:100B90003183FC013C96EE0FFF1FE956F54C1082A5
:100BA00011820895AB01BC0182E00E94A90508955D
:100BB000E0E1F8E082E080838FE5868381E0838353
:100BC00008959091973A91FD34C0E7E9FAE3818363
:100BD000892F8E7F82609EE0928724EF31E020870C
:100BE0003187877F8460808385EA95E08487958755
:100BF000108E118E86879787128E138E808B918B25
:100C0000148E158E828B938B168E178E87EA95E045
:100C1000848B958B10A211A2E0E1F8E084818860BA
:100C200084838581816085838581806C858380E074
:100C3000089581E008958091150882FF07C0E7E9D3
:100C4000FAE380818E7F808382E083878091973A68
:100C500080FD17C0E7E9FAE38D7F80838FEF818302
:100C6000A0E1B8E015968C911597806C15968C9341
:100C7000159713968C9113978F7313968C93838586
:100C8000089581E008959C019091973A92FF09C0E0
:100C9000E7E9FAE32283338364837583892F8B7FAB
:100CA000808308959091973A90FD20C0E7E9FAE398
:100CB00091609083882321F081E08093A13A03C062
:100CC00082E08093A13A0E9475050AC080911508C0
:100CD000882324F08091150886FFF8CF0E947505BF
:100CE0008091973A80FDF2CF80E0089581E00895E9
:100CF00080E00E9452060895CF92DF92EF92FF9219
:100D00001F93CF93DF93182F7B016A01C0E1D7E2D5
:100D1000812F0E94E105813011F42197C9F7CD2B75
:100D2000C1F0B601C7010E94430660E070E084EBA9
:100D300096E00E94D2050E947806C0E1D7E20E94A8
:100D40001B06813011F42197D1F7CD2B21F482E0DD
:100D500003C081E001C080E0DF91CF911F91FF903F
:100D6000EF90DF90CF90089583E00895FC0164BF79
:100D700040830895E0E0FAE083E3818380E29EE42B
:100D800086A397A381E0808380E008958093380A4A
:100D90009093390A089580933A0A90933B0A0895F4
:100DA0001F920F920FB60F9211248F9381E08093C0
:100DB0000B0A8091BB3A8F5F8093BB3A8F910F9063
:100DC0000FBE0F901F90189580E00895E0E4FAE0C0
:100DD00081E08583808380E0089582309105D1F0A1
:100DE0002CF4009751F0019771F02DC084309105DB
:100DF000F9F0BCF0059719F126C01092A00083E429
:100E000080930206089581E18093A00083E480939B
:100E10000206089584E48093A00083E48093020690
:100E2000089582E28093A00083E4809302060895EF
:100E300083E38093A00083E480930206089583E512
:100E400080930206089583E68093020608954F92E8
:100E50005F926F927F928F929F92AF92BF92CF924A
:100E6000DF92EF92FF920F931F93CF93DF93CDB753
:100E7000DEB72A97CDBFDEBF69837A838B839C83DD
:100E800029013A01ED82FE820F831887C986DA862E
:100E9000B5016C197D09072E000C880B990B0E9477
:100EA0008A0A6B017C016D817E818F81988564192E
:100EB0007509860997090E948A0A4B015C019B010A
:100EC000AC01C701B6010E94AD096B017C016093C2
:100ED000E43A7093E53A8093E63A9093E73A2981B1
:100EE0003A814B815C81241535054605570508F488
:100EF00043C08D819E81AF81B88582179307A40777
:100F0000B507C8F4A7019601C501B4010E94030CFE
:100F10004B015C01A985BA85BD01BB0F880B990BFC
:100F20000E948A0AA50194010E9441090E94590A5F
:100F3000262F972F23C069817A818B819C81641928
:100F40007509860997090E94880AA70196010E94DF
:100F5000030C4B015C0129853A85B901330F880BDD
:100F6000990B0E948A0AA50194010E9441090E94DE
:100F7000590A262F972F02C029859A852093DE3A99
:100F80009093DF3A822F2A96CDBFDEBFDF91CF91BB
:100F90001F910F91FF90EF90DF90CF90BF90AF9097
:100FA0009F908F907F906F905F904F9008954F9299
:100FB0005F926F927F928F929F92AF92BF92CF92E9
:100FC000DF92EF92FF920F931F93CF93DF93CDB7F2
:100FD000DEB76297CDBFDEBF2B013C012D833E8380
:100FE0004F835887E986FA860B871C87A98ABA8AB5
:100FF000B501BB0C880B990B0E948A0A4B015C015E
:10100000B601DD0C880B990B0E948A0A6B017C01EA
:101010009B01AC01C501B4010E94AD090E94870B80
:101020004B015C0169857A858B859C850E948A0AC3
:101030006D877E878F87988B6D817E818F81988564
:101040000E948A0A69837A838B839C839B01AC010B
:101050006D857E858F8598890E9440099B01AC0132
:10106000C501B4010E94AD094B015C016093BC3A1B
:101070007093BD3A8093BE3A9093BF3A0E94270A7C
:1010800029813A814B815C810E94700C9B01AC01EB
:10109000C701B6010E94AD096B017C016093C03AA3
:1010A0007093C13A8093C23A9093C33A8D819E81E6
:1010B000AF81B885481659066A067B0608F189850E
:1010C0009A85AB85BC8584159505A605B70518F4EA
:1010D00039892A8917C0C301B2010E94880AA50173
:1010E00094010E94030C0E94270A9B01AC01C701D6
:1010F000B6010E94030C0E94590A362F272F02C006
:1011000030E020E03093DE3A2093DF3A832F922FB5
:10111000A989BA89A817B90708F4CD016296CDBF8D
:10112000DEBFDF91CF911F910F91FF90EF90DF9085
:10113000CF90BF90AF909F908F907F906F905F9077
:101140004F9008958AB182FB882780F9E2E0F8E3A6
:1011500082838AB183FB882780F981838AB1829553
:1011600081708083828190E09C01220F331F220FC7
:10117000331F9181892F90E0880F991F9081822BD6
:10118000892B80930138E09101388E2F90E08830D0
:101190009105E8F5FC01E25CFF4F0C94CE0C83E571
:1011A00098E08093C43A9093C53A35C08EE599E0B3
:1011B0008093C43A9093C53A2EC08CE59AE0809310
:1011C000C43A9093C53A27C08AE89BE08093C43A1A
:1011D0009093C53A20C087E89CE08093C43A9093EE
:1011E000C53A19C08FE99DE08093C43A9093C53AFF
:1011F00012C080EA9EE08093C43A9093C53A0BC037
:101200008FEF9FE08093C43A9093C53A04C0109248
:10121000C43A1092C53A8091C43A9091C53A089563
:1012200020E030E040E050E0BA010EC0F901EE0FDE
:10123000FF1FE80FF91F0190F081E02D4E0F5F1F97
:10124000611D711D2F5F3F4F223331057CF3CB01B0
:10125000BA0108950E94CB0608950E94C60608951B
:1012600080E18093A00082E08093A10080E0089557
:1012700049E068ED80E091E00E94B60680E00895C4
:101280005058BB27AA270E9458090C94030B0E94B0
:10129000F50A38F00E94FC0A20F039F49F3F19F457
:1012A00026F40C94CB0A0EF4E095E7FB0C94C50AE7
:1012B000E92F0E94140B58F3BA17620773078407CB
:1012C000950720F079F4A6F50C94360B0EF4E09512
:1012D0000B2EBA2FA02D0B01B90190010C01CA01F0
:1012E000A0011124FF27591B99F0593F50F4503E9B
:1012F00068F11A16F040A22F232F342F4427585F8D
:10130000F3CF469537952795A795F0405395C9F7A4
:101310007EF41F16BA0B620B730B840BBAF091505C
:10132000A1F0FF0FBB1F661F771F881FC2F70EC0FB
:10133000BA0F621F731F841F48F4879577956795CE
:10134000B795F7959E3F08F0B0CF9395880F08F0BA
:101350009927EE0F9795879508950E94C1090C94DF
:10136000030B0E94FC0A58F00E94F50A40F029F491
:101370005F3F29F00C94C50A51110C94370B0C9463
:10138000CB0A0E94140B68F39923B1F3552391F310
:10139000951B550BBB27AA2762177307840738F0E4
:1013A0009F5F5F4F220F331F441FAA1FA9F335D041
:1013B0000E2E3AF0E0E832D091505040E695001CF5
:1013C000CAF72BD0FE2F29D0660F771F881FBB1FAF
:1013D000261737074807AB07B0E809F0BB0B802D8D
:1013E000BF01FF2793585F4F3AF09E3F510578F0B9
:1013F0000C94C50A0C94370B5F3FE4F3983ED4F38A
:10140000869577956795B795F7959F5FC9F7880F8C
:10141000911D9695879597F90895E1E0660F771FDE
:10142000881FBB1F621773078407BA0720F0621B6F
:10143000730B840BBA0BEE1F88F7E095089529F41F
:1014400016F00C94C50A0C94360B0C94CB0A0E942F
:101450001C0BA8F39638A0F707F80F92E8942BE33B
:101460003AEA48EB5FE70E94190C0F920F920F9235
:101470004DB75EB70F920E94CF0BECE8F0E00E94F0
:10148000CE0A4F915F91EF91FF91E595EE1FFF1FFF
:1014900049F0FE57E0684427EE0F441FFA95E1F744
:1014A0004195550B0E94490B0F9007FE0C943D0B84
:1014B00008950E941C0B88F09F5798F0B92F992728
:1014C000B751B0F0E1F0660F771F881F991F1AF02F
:1014D000BA95C9F714C0B13091F00E94360BB1E053
:1014E00008950C94360B672F782F8827B85F39F052
:1014F000B93FCCF3869577956795B395D9F73EF4C8
:1015000090958095709561957F4F8F4F9F4F08956F
:10151000E89409C097FB3EF490958095709561958D
:101520007F4F8F4F9F4F9923A9F0F92F96E9BB2743
:101530009395F695879577956795B795F111F8CFBF
:10154000FAF4BB0F11F460FF1BC06F5F7F4F8F4F2A
:101550009F4F16C0882311F096E911C0772321F020
:101560009EE8872F762F05C0662371F096E8862FB8
:1015700070E060E02AF09A95660F771F881FDAF70F
:10158000880F9695879597F9089597F99F6780E852
:1015900070E060E008959FEF80EC0895DF93CF93B3
:1015A0001F930F93FF92EF92DF927B018C0168945F
:1015B00006C0DA2EEF010E94160CFE01E894A591F8
:1015C0002591359145915591A6F3EF010E94580957
:1015D000FE019701A801DA9469F7DF90EF90FF9080
:1015E0000F911F91CF91DF91089500240A94161650
:1015F000170618060906089500240A941216130601
:10160000140605060895092E0394000C11F488238E
:1016100052F0BB0F40F4BF2B11F460FF04C06F5FAA
:101620007F4F8F4F9F4F089557FD9058440F551F80
:1016300059F05F3F71F04795880F97FB991F61F054
:101640009F3F79F087950895121613061406551FCB
:10165000F2CF4695F1DF08C0161617061806991F37
:10166000F1CF86957105610508940895E894BB272C
:1016700066277727CB0197F908959B01AC0160E0BD
:1016800070E080E89FE30C94AD090C94C50A0C94BB
:10169000C00C0E941C0BD8F39923C9F3940F511D61
:1016A000A3F39150504094F059F0882332F0660F24
:1016B000771F881F91505040C1F79E3F51052CF76E
:1016C000880F911D9695879597F908955F3FACF027
:1016D000983E9CF0BB27869577956795B79508F45B
:1016E000B1609395C1F7BB0F58F711F460FFE8CFD5
:1016F0006F5F7F4F8F4F9F4FE3CF0C94370B16F0E8
:101700000C94C00C0C94CB0A68940C94C50A0E94EB
:101710001C0BA8F39923C1F3AEF3DF93CF931F9370
:101720000F93FF92C92FDD2788232AF02197660F98
:10173000771F881FDAF720E030E040E85FEB9FE397
:10174000883920F0803E38F021968F770E94410939
:10175000E4EBF0E004C00E944109E1EEF0E00E94F9
:10176000CE0A8B01BE01EC01FB2E6F5771097595F6
:10177000771F880B990B0E948A0A28E132E741E320
:101780005FE30E94160CAF2D9801AE01FF900F9100
:101790001F91CF91DF910E9458090C94030BFA011D
:1017A000DC01AA0FBB1F9B01AC01BF5728F4222705
:1017B00033274427507820C0B75190F4AB2F002432
:1017C000469537952795011CA395D2F3002071F01B
:1017D000220F331F441FB395DAF30ED00C94400947
:1017E00061307105A0E88A07B94630F49B01AC016D
:1017F0006627772788279078309621F020833183D9
:101800004283538308950E94160C0C94030B0E948C
:10181000F50A38F00E94FC0A20F0952311F00C9490
:10182000C50A0C94CB0A11240C94370B0E94140B9C
:1018300070F3959FC1F3950F50E0551F629FF00123
:10184000729FBB27F00DB11D639FAA27F00DB11D3C
:10185000AA1F649F6627B00DA11D661F829F2227C5
:10186000B00DA11D621F739FB00DA11D621F839F4C
:10187000A00D611D221F749F3327A00D611D231F22
:10188000849F600D211D822F762F6A2F11249F5770
:1018900050409AF0F1F088234AF0EE0FFF1FBB1F73
:1018A000661F771F881F91505040A9F79E3F510532
:1018B00080F00C94C50A0C94370B5F3FE4F3983E1C
:1018C000D4F3869577956795B795F795E7959F5FDC
:1018D000C1F7FE2B880F911D9695879597F908956E
:1018E000FA01EE0FFF1F309621053105A1F16115B8
:1018F000710561F48038BFE39B0749F16894903823
:10190000810561F08038BFEF9B0741F099234AF5CC
:10191000FF3FE1053105210519F1E8940894E795A9
:10192000D901AA2329F4AB2FBE2FF85FD0F310C042
:10193000FF5F70F4A695E0F7F73950F019F0FF3A21
:1019400038F49F779F930DD00F9007FC905808951F
:1019500046F00C94CB0A60E070E080E89FE30895C5
:101960004FE79F775F934F933F932F930E94870B8F
:101970002F913F914F915F910E94030C0C94270A85
:101980009F3F31F0915020F4879577956795B795F3
:10199000880F911D9695879597F90895EE0FFF1F73
:0C19A0000590F491E02D0994F894FFCF1D
:0219AC00BAB6C9
:1019AE000107010000FF0F0004100424047204A8B4
:1019BE0004050521042F041E040804520459046072
:0C19CE00046B04F00332044205640500C1
:00000001FF
