:100000000C943E000C945B000C945B000C945B0021
:100010000C945B000C945B000C945B000C945B00F4
:100020000C9482020C945B000C945B000C945B00BB
:100030000C945B000C945B000C945B000C945B00D4
:100040000C945B000C945B000C945B000C945B00C4
:100050000C945B000C945B000C945B000C945B00B4
:100060000C945B000C945B000C945B000C945B00A4
:100070000C945B000C945B000C945B0011241FBE7D
:10008000CFEFCDBFDFE3DEBF18E3A0E0B8E3EAE7E0
:10009000FCE002C005900D92A230B107D9F728E329
:1000A000A2E0B8E301C01D92AA31B207E1F70E94B5
:1000B00060000C943B060C9400000E9444020895DA
:1000C0000E945D0085B18B7F85B910920238109235
:1000D0000338109205381092043880E090E00E94B6
:1000E000BB028BE00E94E0019695879596958795D7
:1000F0009695879580930B3890930C3881E00E94F9
:10010000E001969587959695879596958795809326
:100110000E3890930F3880910038882329F085E0BD
:1001200090E00E94BB0204C083E090E00E94BB020A
:1001300087E00E94E001969587959695879596951C
:1001400087958093183890931938809100388823C8
:1001500051F080911838909119388836964018F4EB
:1001600010920038B2CF8091003881110BC080917D
:100170001838909119388E3C9C4020F081E0809393
:100180000038A3CF80E798E1809316389093173812
:10019000809100388823E1F180910638811126C0D2
:1001A000809118389091193881319F4130F081E069
:1001B000809304388093063869C0809118389091F4
:1001C00019388138984058F480911838909119382E
:1001D0000E94E203609314387093153857C080E48E
:1001E00093E6809314389093153850C08091183856
:1001F0009091193886309E4128F41092043810925C
:10020000063844C081E080930438809306383EC0AD
:1002100080910738811129C0809118389091193840
:100220008F34984030F481E080930538809307380C
:100230002DC080911838909119380E94C80360939E
:1002400014387093153880911838909119388C387B
:100250009940E0F480911838909119380E94B303C6
:10026000809316389093173811C080911838909168
:1002700019388C39984028F01092053810920738B8
:1002800005C081E0809305388093073820910B38B2
:1002900030910C388091163890911738281739070B
:1002A00018F481E08093023880910E3890910F38D5
:1002B0008638964018F081E08093033880910538A5
:1002C00081110CC080910438811108C080910338DD
:1002D000811104C080910238882349F080E090E0C9
:1002E0000E947D0288EE93E00E94FC02EECE85E043
:1002F00090E00E94BB0285E00E949802DC01CB01E5
:10030000689414F8B695A795979587951694D1F7A4
:100310008093103890931138E0901438F09015388D
:10032000609110387091113800E010E080E090E0AA
:100330001F921F922EE42F9320E22F93A12CB12C19
:10034000650120EA3BE040E050E00E940F0380930B
:100350001238909313382091123830911338A4E654
:10036000B0E00E942C0620E23EE440E050E00E9413
:100370000A0620930D3880911238909113380E940C
:100380007D020F900F900F900F909FCEE0E0F6E06F
:1003900086E0818383E5828381E08683808380E0B9
:1003A0000895E0E0F6E0868381E0808708958091FB
:1003B0000B068170089580911006909111060895A2
:1003C0000E94D1010E94D7018823E1F30E94DB0142
:1003D000E0E0F6E0238521602387089580E008951A
:1003E00040E168ED81E690E00E946C0280E00895B3
:1003F000789480E0089580E008C0E82FF0E0E05FA6
:10040000FB4F9081986090838F5F8830B0F380E0DD
:1004100008C0E82FF0E0E05DFB4F9081986090838A
:100420008F5F8830B0F30895E1E1F4E08081887F48
:10043000846080838081877F8083E5E1F4E0808130
:10044000887F846080838081877F8083E7E1F4E018
:100450008081887F846080838081877F8083E0E3E0
:10046000F4E08081887F846080838081877F8083BF
:100470000E94C601089585B18D7F85B984B18260DF
:1004800084B90E94700208950E94FB0181B18E7FA1
:1004900081B980B18E7F80B9E0E1F4E08081877F0F
:1004A000808380818F7780838081887F808385B1FE
:1004B0008B7F85B984B1846084B90E94F0010E9469
:1004C000FC030E9414020E943B020E94F8010E9459
:1004D00096020E94EE010895FC0164BF40830895D6
:1004E000E0E0FAE083E2818381E0868720E23EE477
:1004F00026A337A3808380E0089580933A0A9093DF
:100500003B0A08951F920F920FB60F9211248F93FA
:1005100081E080930B0A809108388F5F80930838C0
:100520008F910F900FBE0F901F90189580E0089547
:10053000CF92DF92EF92FF921F93CF93DF93182F0A
:10054000C0E0D0E0C12CD12C760108C0812F0E94E0
:10055000E001C80ED91EE11CF11C2196C031D10565
:10056000ACF3C701B601DF91CF911F91FF90EF90DF
:10057000DF90CF90089582309105D1F02CF4009750
:1005800051F0019771F02DC084309105F9F0BCF065
:10059000059719F126C01092A00083E4809302060B
:1005A000089581E18093A00083E48093020608957A
:1005B00084E48093A00083E480930206089582E29D
:1005C0008093A00083E480930206089583E38093E0
:1005D000A00083E480930206089583E580930206D9
:1005E000089583E680930206089587E893E10197D2
:1005F000F1F700C0000008950F931F93CF93DF938E
:100600008C01C0E0D0E003C00E94F5022196C01723
:10061000D107D4F3DF91CF911F910F9108954F929D
:100620005F926F927F92AF92BF92CF92DF92EF92E2
:10063000FF920F931F93CF93DF93CDB7DEB76097F1
:10064000CDBFDEBF6D837E838F83988729013A01FA
:10065000E986FA860B871C8789A19AA1ABA1BCA168
:10066000BC01CD016A197B098C099D090E940F0507
:1006700069837A838B839C83C801B70164197509E8
:10068000860997090E940F056D877E878F87988B53
:100690009B01AC0169817A818B819C810E946E04EF
:1006A00069837A838B839C832D813E814F8158851A
:1006B000241535054605570510F4C50142C0898546
:1006C0009A85AB85BC852D813E814F8158858217E7
:1006D0009307A407B507C0F429813A814B815C8157
:1006E0006D857E858F8598890E949D052B013C0133
:1006F000C601B5010E940F05A30192010E940204E8
:100700000E94E004CB011DC06D817E818F819885A0
:1007100064197509860997090E940F0529813A8194
:100720004B815C810E949D052B013C01C601B501F6
:100730000E940F05A30192010E9402040E94E0049E
:10074000CB016096CDBFDEBFDF91CF911F910F919E
:10075000FF90EF90DF90CF90BF90AF907F906F9021
:100760005F904F900895BC0180E090E00E940F05DB
:1007700023EC35EF48E550E40E949D0520E030EC85
:100780004EEB54E40E9401040E94E004CB01089562
:10079000BC0180E090E00E940F0524E13EEA47EEB4
:1007A00050E40E949D0520E030E04BE755E40E94B4
:1007B000010420E030E048E453E40E9401040E9478
:1007C000E0040895BC0180E090E00E940F052DEC4C
:1007D0003CEC4CE651E40E949D0520E030EC4CE8F6
:1007E00055E40E94010420E030E048E453E40E9414
:1007F00001040E94E004089582E08093A10080E05B
:1008000008955058BB27AA270E9419040C94630529
:100810000E94550538F00E945C0520F039F49F3F96
:1008200019F426F40C9452050EF4E095E7FB0C94B1
:100830004C05E92F0E94740558F3BA176207730735
:100840008407950720F079F4A6F50C9496050EF42C
:10085000E0950B2EBA2FA02D0B01B90190010C01D0
:10086000CA01A0011124FF27591B99F0593F50F4E8
:10087000503E68F11A16F040A22F232F342F442740
:10088000585FF3CF469537952795A795F040539538
:10089000C9F77EF41F16BA0B620B730B840BBAF008
:1008A0009150A1F0FF0FBB1F661F771F881FC2F773
:1008B0000EC0BA0F621F731F841F48F48795779587
:1008C0006795B795F7959E3F08F0B0CF9395880F41
:1008D00008F09927EE0F9795879508950E94820456
:1008E0000C9463050E945C0558F00E94550540F089
:1008F00029F45F3F29F00C944C0551110C94970595
:100900000C9452050E94740568F39923B1F35523A2
:1009100091F3951B550BBB27AA2762177307840712
:1009200038F09F5F5F4F220F331F441FAA1FA9F3A8
:1009300035D00E2E3AF0E0E832D091505040E69596
:10094000001CCAF72BD0FE2F29D0660F771F881FF7
:10095000BB1F261737074807AB07B0E809F0BB0BEA
:10096000802DBF01FF2793585F4F3AF09E3F5105FE
:1009700078F00C944C050C9497055F3FE4F3983E97
:10098000D4F3869577956795B795F7959F5FC9F7E7
:10099000880F911D9695879597F90895E1E0660F68
:1009A000771F881FBB1F621773078407BA0720F0E1
:1009B000621B730B840BBA0BEE1F88F7E09508954A
:1009C0000E947C0588F09F5798F0B92F9927B7515E
:1009D000B0F0E1F0660F771F881F991F1AF0BA95E3
:1009E000C9F714C0B13091F00E949605B1E00895A6
:1009F0000C949605672F782F8827B85F39F0B93F98
:100A0000CCF3869577956795B395D9F73EF4909595
:100A10008095709561957F4F8F4F9F4F0895E89413
:100A200009C097FB3EF490958095709561957F4F36
:100A30008F4F9F4F9923A9F0F92F96E9BB279395E4
:100A4000F695879577956795B795F111F8CFFAF4F4
:100A5000BB0F11F460FF1BC06F5F7F4F8F4F9F4F25
:100A600016C0882311F096E911C0772321F09EE883
:100A7000872F762F05C0662371F096E8862F70E0E9
:100A800060E02AF09A95660F771F881FDAF7880FC3
:100A90009695879597F9089597F99F6780E870E094
:100AA00060E008959FEF80EC089500240A941616E4
:100AB000170618060906089500240A94121613064C
:100AC000140605060895092E0394000C11F48823DA
:100AD00052F0BB0F40F4BF2B11F460FF04C06F5FF6
:100AE0007F4F8F4F9F4F089557FD9058440F551FCC
:100AF00059F05F3F71F04795880F97FB991F61F0A0
:100B00009F3F79F087950895121613061406551F16
:100B1000F2CF4695F1DF08C0161617061806991F82
:100B2000F1CF86957105610508940895E894BB2777
:100B300066277727CB0197F908950E94B0050C949A
:100B400063050E94550538F00E945C0520F095234E
:100B500011F00C944C050C94520511240C9497053B
:100B60000E94740570F3959FC1F3950F50E0551FD7
:100B7000629FF001729FBB27F00DB11D639FAA27F2
:100B8000F00DB11DAA1F649F6627B00DA11D661F41
:100B9000829F2227B00DA11D621F739FB00DA11D62
:100BA000621F839FA00D611D221F749F3327A00D1C
:100BB000611D231F849F600D211D822F762F6A2FB8
:100BC00011249F5750409AF0F1F088234AF0EE0F1D
:100BD000FF1FBB1F661F771F881F91505040A9F74A
:100BE0009E3F510580F00C944C050C9497055F3F97
:100BF000E4F3983ED4F3869577956795B795F79586
:100C0000E7959F5FC1F7FE2B880F911D96958795FD
:100C100097F90895A1E21A2EAA1BBB1BFD010DC076
:100C2000AA1FBB1FEE1FFF1FA217B307E407F5079C
:100C300020F0A21BB30BE40BF50B661F771F881F78
:100C4000991F1A9469F760957095809590959B010E
:100C5000AC01BD01CF010895A29FB001B39FC001B7
:100C6000A39F700D811D1124911DB29F700D811DD8
:0A0C70001124911D0895F894FFCFA0
:020C7A00010077
:00000001FF
