:100000000C943E000C945B000C945B000C945B0021
:100010000C945B000C945B000C945B000C945B00F4
:100020000C94B1040C945B000C945B000C945B008A
:100030000C945B000C9460000C945B000C945B00CF
:100040000C945B000C945B000C945B000C945B00C4
:100050000C945B000C945B000C945B000C945B00B4
:100060000C945B000C945B000C945B000C945B00A4
:100070000C945B000C945B000C945B0011241FBE7D
:10008000CFEFCDBFDFE3DEBF18E3A0E0B8E3E2EAE5
:10009000F9E002C005900D92A632B107D9F728E326
:1000A000A6E2B8E301C01D92A335B207E1F70E94B2
:1000B000D7000C94CE040C9400000E94A80108956F
:1000C0001F920F920FB60F9211242F933F934F93CD
:1000D0005F936F937F938F939F93AF93BF93EF93B0
:1000E000FF93CF93DF9300D0CDB7DEB78091263852
:1000F000909127388091A089892B80934D388091E9
:100100002638909127388093523880914D388983D2
:10011000809152388A8342E050E0BE016F5F7F4F8A
:100120008091A1890E946B04809100388823A9F0F6
:1001300080912638909127380196809326389093A5
:10014000273881159041DCF08FEF9FE080932638AF
:10015000909327381092003812C0809126389091E1
:1001600027380197809326389093273899233CF4B9
:10017000109226381092273881E08093003881E071
:100180008093460A0F900F90DF91CF91FF91EF91EE
:10019000BF91AF919F918F917F916F915F914F919F
:1001A0003F912F910F900FBE0F901F9018950E94B6
:1001B0005D00E1E3F4E080818068808388E893E17A
:1001C00080934C0A90934D0AF89488E780934D38B9
:1001D00080914D38EEE4F8E380831182128243E08F
:1001E00050E0BF0180E60E946B0480935138789400
:1001F000FFCFE0E0F6E081E08283808380E0089535
:1002000080E0089542E068ED81E690E00E94A50458
:1002100080E00895789480E0089580E008C0E82F99
:10022000F0E0E05FFB4F9081986090838F5F8830B3
:10023000B0F380E008C0E82FF0E0E05DFB4F908174
:10024000986090838F5F8830B0F380E008C0E82F1B
:10025000F0E0E05BFB4F9081986090838F5F883087
:10026000B0F30895E3E1F4E08081887F84608083C7
:100270008081877F8083E5E1F4E08081887F8460EE
:1002800080838081877F8083E6E1F4E08081887FBE
:10029000846080838081877F8083E5E3F4E08081D0
:1002A000887F846080838081877F8083E4E3F4E0BB
:1002B0008081887F846080838081877F80830E94A3
:1002C000F900089585B18E7F85B984B1816084B9C4
:1002D00085B18D7F85B984B1826084B90E94A904FB
:1002E00008950E94C704089581B18B7F81B980B1C0
:1002F000846080B9E2E1F4E08081877F808380813F
:100300008F7780838081887F8083A0E0B2E0119620
:100310008C911197806111968C93119781B18D7F8B
:1003200081B980B1826080B9E1E1F4E08081877FAA
:10033000808380818F7780838081887F80831196FE
:100340008C911197806111968C930E94C703089538
:100350000E940D0185B18B7F85B984B1846084B919
:1003600085B1877F85B984B1886084B988B18B7F76
:1003700088B9E2E5F4E08081877F808388B1877F58
:1003800088B9E3E5F4E08081877F808388B18F7E40
:1003900088B9E4E5F4E08081877F80830E940201D0
:1003A0000E9432010E9462010E9471010E940A01B2
:1003B0000E94C5040E9474010E9400010895E0E1BA
:1003C000F8E0848188608483858181608583E8E2A8
:1003D000F8E380818E7F808313868EE00895E8E2C3
:1003E000F8E380818E7F8083138680E00895E0E1CA
:1003F000F8E08481836084830E94EF010895E8E23D
:10040000F8E3808188608083818190E0880F991F64
:1004100081608093170884E008950E94FF01089589
:100420000E94FF010895E8E2F8E3808188608083FC
:100430008181880F8093170883E008950E9413023A
:100440000895A8E2B8E38C91877F8C9382E01B9695
:100450008C931B975096ED91FC9151975C968D91E2
:100460009C915D970995823019F0833021F006C088
:100470000E94100208950E941E0208950E94F70132
:100480000895E0E1F8E084818B7F848384E008951F
:10049000E0E1F8E084818B7F848383E00895E0E1EC
:1004A000F8E08481846084838481836084830E94F3
:1004B000EF010895E0E1F8E084818460848388E0BE
:1004C00008958091150884FF19C0A8E2B8E35296F8
:1004D000ED91FC9153975E968D919C915F97099554
:1004E000823019F0833021F006C00E941002089576
:1004F0000E941E0208950E94F7010895E8E2F8E3C1
:100500008081877F8083A281B381CD010196828320
:1005100093838C91809318088481958101978483BB
:100520009583892B11F083E0089585E00895CF939A
:10053000DF93E8E2F8E38081877F8083848195817F
:10054000019731F4E0E1F8E084818460848305C0A0
:10055000E0E1F8E084818B7F8483E8E2F8E3848142
:100560009581019784839583892BA9F0DF01C2814E
:10057000D381E0E1F8E08085888312968D919C918B
:100580001397019612968D939C93139784818260A2
:10059000848384E026C0A8E2B8E31296ED91FC9132
:1005A000139780911808808312968D919C911397D0
:1005B000019612968D939C9313978C9184608C93E3
:1005C0001C96ED91FC911D9758968D919C91599791
:1005D00009958250823018F40E945A0202C00E948B
:1005E0004F02DF91CF9108958091150884FF19C0C3
:1005F000A8E2B8E35296ED91FC9153975E968D91E7
:100600009C915F970995823019F0833021F006C0E4
:100610000E94100208950E941E0208950E94F70190
:100620000895A8E2B8E38C9184608C931C96ED91B8
:10063000FC911D9758968D919C91599709958330FF
:1006400039F0843041F0823049F40E94100208955C
:100650000E941E0208950E94610208950E94F701FF
:100660000895E0E1F8E0858188608583A8E2B8E339
:1006700082E01B968C931B971E96ED91FC911F9721
:100680005A968D919C915B970995823019F0833031
:1006900021F006C00E94100208950E941E020895D3
:1006A0000E94DF010895E0E1F8E08481886084839E
:1006B000858181608583E8E2F8E380818E7F808395
:1006C00082E083878EE00895CF93DF93E0E1F8E046
:1006D0008581806C85838091283883FF07C0809155
:1006E000150884FF03C08FE080933238809115088D
:1006F00083FF03C080E1809332388091150882FF28
:1007000003C081E180933238C8E2D8E3EA85F0E0A3
:10071000EE0FFF1FEF5FF74C0190F081E02D099580
:100720008A87DF91CF91089581E0089585E008954B
:100730006115710591F090E0FC013696EE0FFF1FF8
:10074000E85DF74C60837183FC013C96EE0FFF1F60
:10075000E85DF74C40835183089590E0FC013696A4
:10076000EE0FFF1FE85DF74C24E933E0208331836F
:10077000FC013C96EE0FFF1FE85DF74C10821182E2
:100780000895AB01BC0182E00E9498030895E0E166
:10079000F8E082E080838FE5868381E0838308959B
:1007A0009091283891FD34C0E8E2F8E38183892FE5
:1007B0008E7F82609EE0928724EF31E02087318730
:1007C000877F8460808384E993E084879587108E97
:1007D000118E86879787128E138E808B918B148E45
:1007E000158E828B938B168E178E86E993E0848B01
:1007F000958B10A211A2E0E1F8E0848188608483E7
:100800008581816085838581806C858380E0089502
:1008100081E008958091150882FF07C0E8E2F8E3BF
:1008200080818E7F808382E083878091283880FD5D
:1008300017C0E8E2F8E38D7F80838FEF8183A0E12A
:10084000B8E015968C911597806C15968C9315973A
:1008500013968C9113978F7313968C9383850895B9
:1008600081E008959C019091283892FF09C0E8E248
:10087000F8E32283338364837583892F8B7F80839E
:1008800008959091283890FD20C0E8E2F8E3916047
:100890009083882321F081E08093323803C082E086
:1008A000809332380E9464030AC08091150888231F
:1008B00024F08091150886FFF8CF0E946403809190
:1008C000283880FDF2CF80E0089581E0089580E02F
:1008D0000E9441040895CF92DF92EF92FF921F93FE
:1008E000CF93DF93182F7B016A01C0E1D7E2812FFC
:1008F0000E94D003813011F42197C9F7CD2BC1F0AC
:10090000B601C7010E94320460E070E083EA94E01F
:100910000E94C1030E946704C0E1D7E20E940A045A
:10092000813011F42197D1F7CD2B21F482E003C05F
:1009300081E001C080E0DF91CF911F91FF90EF90A7
:10094000DF90CF90089583E00895FC0164BF408359
:100950000895E0E0FAE083E0818381E0808380E035
:1009600008951F920F920FB60F9211248F9381E07A
:1009700080930B0A80914C388F5F80934C388F9115
:100980000F900FBE0F901F90189580E00895E0E43F
:10099000FAE081E08583808380E00895F894FFCFBA
:0209A0000060F5
:1009A20001EF01FF01130261029702F40210021E1D
:1009B200020D02F701410248024F025A02DF0121F1
:0609C200023103530300A3
:00000001FF
